{
	"contracts/TaskManager/TaskContract.sol": {
		"TaskContract": {
			"abi": [
				{
					"inputs": [
						{
							"internalType": "uint256",
							"name": "",
							"type": "uint256"
						}
					],
					"name": "Tasks",
					"outputs": [
						{
							"internalType": "uint256",
							"name": "Id",
							"type": "uint256"
						},
						{
							"internalType": "string",
							"name": "Title",
							"type": "string"
						},
						{
							"internalType": "string",
							"name": "Description",
							"type": "string"
						},
						{
							"internalType": "bool",
							"name": "Done",
							"type": "bool"
						},
						{
							"internalType": "uint256",
							"name": "createdAt",
							"type": "uint256"
						}
					],
					"stateMutability": "view",
					"type": "function"
				},
				{
					"inputs": [
						{
							"internalType": "string",
							"name": "_title",
							"type": "string"
						},
						{
							"internalType": "string",
							"name": "_description",
							"type": "string"
						}
					],
					"name": "createTask",
					"outputs": [],
					"stateMutability": "nonpayable",
					"type": "function"
				}
			],
			"devdoc": {
				"kind": "dev",
				"methods": {},
				"version": 1
			},
			"evm": {
				"assembly": "    /* \"contracts/TaskManager/TaskContract.sol\":59:530  contract TaskContract {\r... */\n  mstore(0x40, 0x80)\n    /* \"contracts/TaskManager/TaskContract.sol\":112:113  0 */\n  0x00\n    /* \"contracts/TaskManager/TaskContract.sol\":90:113  uint256 TaskCounter = 0 */\n  dup1\n  sstore\n    /* \"contracts/TaskManager/TaskContract.sol\":59:530  contract TaskContract {\r... */\n  callvalue\n  dup1\n  iszero\n  tag_1\n  jumpi\n  0x00\n  dup1\n  revert\ntag_1:\n  pop\n  dataSize(sub_0)\n  dup1\n  dataOffset(sub_0)\n  0x00\n  codecopy\n  0x00\n  return\nstop\n\nsub_0: assembly {\n        /* \"contracts/TaskManager/TaskContract.sol\":59:530  contract TaskContract {\r... */\n      mstore(0x40, 0x80)\n      callvalue\n      dup1\n      iszero\n      tag_1\n      jumpi\n      0x00\n      dup1\n      revert\n    tag_1:\n      pop\n      jumpi(tag_2, lt(calldatasize, 0x04))\n      shr(0xe0, calldataload(0x00))\n      dup1\n      0x292a4585\n      eq\n      tag_3\n      jumpi\n      dup1\n      0xf4b2a46e\n      eq\n      tag_4\n      jumpi\n    tag_2:\n      0x00\n      dup1\n      revert\n        /* \"contracts/TaskManager/TaskContract.sol\":321:525  function createTask(string memory _title, string memory _description) public {\r... */\n    tag_3:\n      tag_5\n      0x04\n      dup1\n      calldatasize\n      sub\n      dup2\n      add\n      swap1\n      tag_6\n      swap2\n      swap1\n      tag_7\n      jump\t// in\n    tag_6:\n      tag_8\n      jump\t// in\n    tag_5:\n      stop\n        /* \"contracts/TaskManager/TaskContract.sol\":274:312  mapping (uint256 => Task) public Tasks */\n    tag_4:\n      tag_9\n      0x04\n      dup1\n      calldatasize\n      sub\n      dup2\n      add\n      swap1\n      tag_10\n      swap2\n      swap1\n      tag_11\n      jump\t// in\n    tag_10:\n      tag_12\n      jump\t// in\n    tag_9:\n      mload(0x40)\n      tag_13\n      swap6\n      swap5\n      swap4\n      swap3\n      swap2\n      swap1\n      tag_14\n      jump\t// in\n    tag_13:\n      mload(0x40)\n      dup1\n      swap2\n      sub\n      swap1\n      return\n        /* \"contracts/TaskManager/TaskContract.sol\":321:525  function createTask(string memory _title, string memory _description) public {\r... */\n    tag_8:\n        /* \"contracts/TaskManager/TaskContract.sol\":430:493  Task(TaskCounter, _title, _description, false, block.timestamp) */\n      mload(0x40)\n      dup1\n      0xa0\n      add\n      0x40\n      mstore\n      dup1\n        /* \"contracts/TaskManager/TaskContract.sol\":435:446  TaskCounter */\n      sload(0x00)\n        /* \"contracts/TaskManager/TaskContract.sol\":430:493  Task(TaskCounter, _title, _description, false, block.timestamp) */\n      dup2\n      mstore\n      0x20\n      add\n        /* \"contracts/TaskManager/TaskContract.sol\":448:454  _title */\n      dup4\n        /* \"contracts/TaskManager/TaskContract.sol\":430:493  Task(TaskCounter, _title, _description, false, block.timestamp) */\n      dup2\n      mstore\n      0x20\n      add\n        /* \"contracts/TaskManager/TaskContract.sol\":456:468  _description */\n      dup3\n        /* \"contracts/TaskManager/TaskContract.sol\":430:493  Task(TaskCounter, _title, _description, false, block.timestamp) */\n      dup2\n      mstore\n      0x20\n      add\n        /* \"contracts/TaskManager/TaskContract.sol\":470:475  false */\n      0x00\n        /* \"contracts/TaskManager/TaskContract.sol\":430:493  Task(TaskCounter, _title, _description, false, block.timestamp) */\n      iszero\n      iszero\n      dup2\n      mstore\n      0x20\n      add\n        /* \"contracts/TaskManager/TaskContract.sol\":477:492  block.timestamp */\n      timestamp\n        /* \"contracts/TaskManager/TaskContract.sol\":430:493  Task(TaskCounter, _title, _description, false, block.timestamp) */\n      dup2\n      mstore\n      pop\n        /* \"contracts/TaskManager/TaskContract.sol\":409:414  Tasks */\n      0x01\n        /* \"contracts/TaskManager/TaskContract.sol\":409:427  Tasks[TaskCounter] */\n      0x00\n        /* \"contracts/TaskManager/TaskContract.sol\":415:426  TaskCounter */\n      dup1\n      sload\n        /* \"contracts/TaskManager/TaskContract.sol\":409:427  Tasks[TaskCounter] */\n      dup2\n      mstore\n      0x20\n      add\n      swap1\n      dup2\n      mstore\n      0x20\n      add\n      0x00\n      keccak256\n        /* \"contracts/TaskManager/TaskContract.sol\":409:493  Tasks[TaskCounter] = Task(TaskCounter, _title, _description, false, block.timestamp) */\n      0x00\n      dup3\n      add\n      mload\n      dup2\n      0x00\n      add\n      sstore\n      0x20\n      dup3\n      add\n      mload\n      dup2\n      0x01\n      add\n      swap1\n      dup1\n      mload\n      swap1\n      0x20\n      add\n      swap1\n      tag_16\n      swap3\n      swap2\n      swap1\n      tag_17\n      jump\t// in\n    tag_16:\n      pop\n      0x40\n      dup3\n      add\n      mload\n      dup2\n      0x02\n      add\n      swap1\n      dup1\n      mload\n      swap1\n      0x20\n      add\n      swap1\n      tag_18\n      swap3\n      swap2\n      swap1\n      tag_17\n      jump\t// in\n    tag_18:\n      pop\n      0x60\n      dup3\n      add\n      mload\n      dup2\n      0x03\n      add\n      exp(0x0100, 0x00)\n      dup2\n      sload\n      dup2\n      0xff\n      mul\n      not\n      and\n      swap1\n      dup4\n      iszero\n      iszero\n      mul\n      or\n      swap1\n      sstore\n      pop\n      0x80\n      dup3\n      add\n      mload\n      dup2\n      0x04\n      add\n      sstore\n      swap1\n      pop\n      pop\n        /* \"contracts/TaskManager/TaskContract.sol\":504:515  TaskCounter */\n      0x00\n      dup1\n        /* \"contracts/TaskManager/TaskContract.sol\":504:517  TaskCounter++ */\n      dup2\n      sload\n      dup1\n      swap3\n      swap2\n      swap1\n      tag_19\n      swap1\n      tag_20\n      jump\t// in\n    tag_19:\n      swap2\n      swap1\n      pop\n      sstore\n      pop\n        /* \"contracts/TaskManager/TaskContract.sol\":321:525  function createTask(string memory _title, string memory _description) public {\r... */\n      pop\n      pop\n      jump\t// out\n        /* \"contracts/TaskManager/TaskContract.sol\":274:312  mapping (uint256 => Task) public Tasks */\n    tag_12:\n      mstore(0x20, 0x01)\n      dup1\n      0x00\n      mstore\n      keccak256(0x00, 0x40)\n      0x00\n      swap2\n      pop\n      swap1\n      pop\n      dup1\n      0x00\n      add\n      sload\n      swap1\n      dup1\n      0x01\n      add\n      dup1\n      sload\n      tag_21\n      swap1\n      tag_22\n      jump\t// in\n    tag_21:\n      dup1\n      0x1f\n      add\n      0x20\n      dup1\n      swap2\n      div\n      mul\n      0x20\n      add\n      mload(0x40)\n      swap1\n      dup2\n      add\n      0x40\n      mstore\n      dup1\n      swap3\n      swap2\n      swap1\n      dup2\n      dup2\n      mstore\n      0x20\n      add\n      dup3\n      dup1\n      sload\n      tag_23\n      swap1\n      tag_22\n      jump\t// in\n    tag_23:\n      dup1\n      iszero\n      tag_24\n      jumpi\n      dup1\n      0x1f\n      lt\n      tag_25\n      jumpi\n      0x0100\n      dup1\n      dup4\n      sload\n      div\n      mul\n      dup4\n      mstore\n      swap2\n      0x20\n      add\n      swap2\n      jump(tag_24)\n    tag_25:\n      dup3\n      add\n      swap2\n      swap1\n      0x00\n      mstore\n      keccak256(0x00, 0x20)\n      swap1\n    tag_26:\n      dup2\n      sload\n      dup2\n      mstore\n      swap1\n      0x01\n      add\n      swap1\n      0x20\n      add\n      dup1\n      dup4\n      gt\n      tag_26\n      jumpi\n      dup3\n      swap1\n      sub\n      0x1f\n      and\n      dup3\n      add\n      swap2\n    tag_24:\n      pop\n      pop\n      pop\n      pop\n      pop\n      swap1\n      dup1\n      0x02\n      add\n      dup1\n      sload\n      tag_27\n      swap1\n      tag_22\n      jump\t// in\n    tag_27:\n      dup1\n      0x1f\n      add\n      0x20\n      dup1\n      swap2\n      div\n      mul\n      0x20\n      add\n      mload(0x40)\n      swap1\n      dup2\n      add\n      0x40\n      mstore\n      dup1\n      swap3\n      swap2\n      swap1\n      dup2\n      dup2\n      mstore\n      0x20\n      add\n      dup3\n      dup1\n      sload\n      tag_28\n      swap1\n      tag_22\n      jump\t// in\n    tag_28:\n      dup1\n      iszero\n      tag_29\n      jumpi\n      dup1\n      0x1f\n      lt\n      tag_30\n      jumpi\n      0x0100\n      dup1\n      dup4\n      sload\n      div\n      mul\n      dup4\n      mstore\n      swap2\n      0x20\n      add\n      swap2\n      jump(tag_29)\n    tag_30:\n      dup3\n      add\n      swap2\n      swap1\n      0x00\n      mstore\n      keccak256(0x00, 0x20)\n      swap1\n    tag_31:\n      dup2\n      sload\n      dup2\n      mstore\n      swap1\n      0x01\n      add\n      swap1\n      0x20\n      add\n      dup1\n      dup4\n      gt\n      tag_31\n      jumpi\n      dup3\n      swap1\n      sub\n      0x1f\n      and\n      dup3\n      add\n      swap2\n    tag_29:\n      pop\n      pop\n      pop\n      pop\n      pop\n      swap1\n      dup1\n      0x03\n      add\n      0x00\n      swap1\n      sload\n      swap1\n      0x0100\n      exp\n      swap1\n      div\n      0xff\n      and\n      swap1\n      dup1\n      0x04\n      add\n      sload\n      swap1\n      pop\n      dup6\n      jump\t// out\n    tag_17:\n      dup3\n      dup1\n      sload\n      tag_32\n      swap1\n      tag_22\n      jump\t// in\n    tag_32:\n      swap1\n      0x00\n      mstore\n      keccak256(0x00, 0x20)\n      swap1\n      0x1f\n      add\n      0x20\n      swap1\n      div\n      dup2\n      add\n      swap3\n      dup3\n      tag_34\n      jumpi\n      0x00\n      dup6\n      sstore\n      jump(tag_33)\n    tag_34:\n      dup3\n      0x1f\n      lt\n      tag_35\n      jumpi\n      dup1\n      mload\n      not(0xff)\n      and\n      dup4\n      dup1\n      add\n      or\n      dup6\n      sstore\n      jump(tag_33)\n    tag_35:\n      dup3\n      dup1\n      add\n      0x01\n      add\n      dup6\n      sstore\n      dup3\n      iszero\n      tag_33\n      jumpi\n      swap2\n      dup3\n      add\n    tag_36:\n      dup3\n      dup2\n      gt\n      iszero\n      tag_37\n      jumpi\n      dup3\n      mload\n      dup3\n      sstore\n      swap2\n      0x20\n      add\n      swap2\n      swap1\n      0x01\n      add\n      swap1\n      jump(tag_36)\n    tag_37:\n    tag_33:\n      pop\n      swap1\n      pop\n      tag_38\n      swap2\n      swap1\n      tag_39\n      jump\t// in\n    tag_38:\n      pop\n      swap1\n      jump\t// out\n    tag_39:\n    tag_40:\n      dup1\n      dup3\n      gt\n      iszero\n      tag_41\n      jumpi\n      0x00\n      dup2\n      0x00\n      swap1\n      sstore\n      pop\n      0x01\n      add\n      jump(tag_40)\n    tag_41:\n      pop\n      swap1\n      jump\t// out\n        /* \"#utility.yul\":7:352   */\n    tag_43:\n        /* \"#utility.yul\":85:90   */\n      0x00\n        /* \"#utility.yul\":110:176   */\n      tag_45\n        /* \"#utility.yul\":126:175   */\n      tag_46\n        /* \"#utility.yul\":168:174   */\n      dup5\n        /* \"#utility.yul\":126:175   */\n      tag_47\n      jump\t// in\n    tag_46:\n        /* \"#utility.yul\":110:176   */\n      tag_48\n      jump\t// in\n    tag_45:\n        /* \"#utility.yul\":101:176   */\n      swap1\n      pop\n        /* \"#utility.yul\":199:205   */\n      dup3\n        /* \"#utility.yul\":192:197   */\n      dup2\n        /* \"#utility.yul\":185:206   */\n      mstore\n        /* \"#utility.yul\":237:241   */\n      0x20\n        /* \"#utility.yul\":230:235   */\n      dup2\n        /* \"#utility.yul\":226:242   */\n      add\n        /* \"#utility.yul\":275:278   */\n      dup5\n        /* \"#utility.yul\":266:272   */\n      dup5\n        /* \"#utility.yul\":261:264   */\n      dup5\n        /* \"#utility.yul\":257:273   */\n      add\n        /* \"#utility.yul\":254:279   */\n      gt\n        /* \"#utility.yul\":251:253   */\n      iszero\n      tag_49\n      jumpi\n        /* \"#utility.yul\":292:293   */\n      0x00\n        /* \"#utility.yul\":289:290   */\n      dup1\n        /* \"#utility.yul\":282:294   */\n      revert\n        /* \"#utility.yul\":251:253   */\n    tag_49:\n        /* \"#utility.yul\":305:346   */\n      tag_50\n        /* \"#utility.yul\":339:345   */\n      dup5\n        /* \"#utility.yul\":334:337   */\n      dup3\n        /* \"#utility.yul\":329:332   */\n      dup6\n        /* \"#utility.yul\":305:346   */\n      tag_51\n      jump\t// in\n    tag_50:\n        /* \"#utility.yul\":91:352   */\n      pop\n      swap4\n      swap3\n      pop\n      pop\n      pop\n      jump\t// out\n        /* \"#utility.yul\":372:645   */\n    tag_52:\n        /* \"#utility.yul\":428:433   */\n      0x00\n        /* \"#utility.yul\":477:480   */\n      dup3\n        /* \"#utility.yul\":470:474   */\n      0x1f\n        /* \"#utility.yul\":462:468   */\n      dup4\n        /* \"#utility.yul\":458:475   */\n      add\n        /* \"#utility.yul\":454:481   */\n      slt\n        /* \"#utility.yul\":444:446   */\n      tag_54\n      jumpi\n        /* \"#utility.yul\":495:496   */\n      0x00\n        /* \"#utility.yul\":492:493   */\n      dup1\n        /* \"#utility.yul\":485:497   */\n      revert\n        /* \"#utility.yul\":444:446   */\n    tag_54:\n        /* \"#utility.yul\":535:541   */\n      dup2\n        /* \"#utility.yul\":522:542   */\n      calldataload\n        /* \"#utility.yul\":560:639   */\n      tag_55\n        /* \"#utility.yul\":635:638   */\n      dup5\n        /* \"#utility.yul\":627:633   */\n      dup3\n        /* \"#utility.yul\":620:624   */\n      0x20\n        /* \"#utility.yul\":612:618   */\n      dup7\n        /* \"#utility.yul\":608:625   */\n      add\n        /* \"#utility.yul\":560:639   */\n      tag_43\n      jump\t// in\n    tag_55:\n        /* \"#utility.yul\":551:639   */\n      swap2\n      pop\n        /* \"#utility.yul\":434:645   */\n      pop\n      swap3\n      swap2\n      pop\n      pop\n      jump\t// out\n        /* \"#utility.yul\":651:790   */\n    tag_56:\n        /* \"#utility.yul\":697:702   */\n      0x00\n        /* \"#utility.yul\":735:741   */\n      dup2\n        /* \"#utility.yul\":722:742   */\n      calldataload\n        /* \"#utility.yul\":713:742   */\n      swap1\n      pop\n        /* \"#utility.yul\":751:784   */\n      tag_58\n        /* \"#utility.yul\":778:783   */\n      dup2\n        /* \"#utility.yul\":751:784   */\n      tag_59\n      jump\t// in\n    tag_58:\n        /* \"#utility.yul\":703:790   */\n      swap3\n      swap2\n      pop\n      pop\n      jump\t// out\n        /* \"#utility.yul\":796:1429   */\n    tag_7:\n        /* \"#utility.yul\":884:890   */\n      0x00\n        /* \"#utility.yul\":892:898   */\n      dup1\n        /* \"#utility.yul\":941:943   */\n      0x40\n        /* \"#utility.yul\":929:938   */\n      dup4\n        /* \"#utility.yul\":920:927   */\n      dup6\n        /* \"#utility.yul\":916:939   */\n      sub\n        /* \"#utility.yul\":912:944   */\n      slt\n        /* \"#utility.yul\":909:911   */\n      iszero\n      tag_61\n      jumpi\n        /* \"#utility.yul\":957:958   */\n      0x00\n        /* \"#utility.yul\":954:955   */\n      dup1\n        /* \"#utility.yul\":947:959   */\n      revert\n        /* \"#utility.yul\":909:911   */\n    tag_61:\n        /* \"#utility.yul\":1028:1029   */\n      0x00\n        /* \"#utility.yul\":1017:1026   */\n      dup4\n        /* \"#utility.yul\":1013:1030   */\n      add\n        /* \"#utility.yul\":1000:1031   */\n      calldataload\n        /* \"#utility.yul\":1058:1076   */\n      0xffffffffffffffff\n        /* \"#utility.yul\":1050:1056   */\n      dup2\n        /* \"#utility.yul\":1047:1077   */\n      gt\n        /* \"#utility.yul\":1044:1046   */\n      iszero\n      tag_62\n      jumpi\n        /* \"#utility.yul\":1090:1091   */\n      0x00\n        /* \"#utility.yul\":1087:1088   */\n      dup1\n        /* \"#utility.yul\":1080:1092   */\n      revert\n        /* \"#utility.yul\":1044:1046   */\n    tag_62:\n        /* \"#utility.yul\":1118:1181   */\n      tag_63\n        /* \"#utility.yul\":1173:1180   */\n      dup6\n        /* \"#utility.yul\":1164:1170   */\n      dup3\n        /* \"#utility.yul\":1153:1162   */\n      dup7\n        /* \"#utility.yul\":1149:1171   */\n      add\n        /* \"#utility.yul\":1118:1181   */\n      tag_52\n      jump\t// in\n    tag_63:\n        /* \"#utility.yul\":1108:1181   */\n      swap3\n      pop\n        /* \"#utility.yul\":971:1191   */\n      pop\n        /* \"#utility.yul\":1258:1260   */\n      0x20\n        /* \"#utility.yul\":1247:1256   */\n      dup4\n        /* \"#utility.yul\":1243:1261   */\n      add\n        /* \"#utility.yul\":1230:1262   */\n      calldataload\n        /* \"#utility.yul\":1289:1307   */\n      0xffffffffffffffff\n        /* \"#utility.yul\":1281:1287   */\n      dup2\n        /* \"#utility.yul\":1278:1308   */\n      gt\n        /* \"#utility.yul\":1275:1277   */\n      iszero\n      tag_64\n      jumpi\n        /* \"#utility.yul\":1321:1322   */\n      0x00\n        /* \"#utility.yul\":1318:1319   */\n      dup1\n        /* \"#utility.yul\":1311:1323   */\n      revert\n        /* \"#utility.yul\":1275:1277   */\n    tag_64:\n        /* \"#utility.yul\":1349:1412   */\n      tag_65\n        /* \"#utility.yul\":1404:1411   */\n      dup6\n        /* \"#utility.yul\":1395:1401   */\n      dup3\n        /* \"#utility.yul\":1384:1393   */\n      dup7\n        /* \"#utility.yul\":1380:1402   */\n      add\n        /* \"#utility.yul\":1349:1412   */\n      tag_52\n      jump\t// in\n    tag_65:\n        /* \"#utility.yul\":1339:1412   */\n      swap2\n      pop\n        /* \"#utility.yul\":1201:1422   */\n      pop\n        /* \"#utility.yul\":899:1429   */\n      swap3\n      pop\n      swap3\n      swap1\n      pop\n      jump\t// out\n        /* \"#utility.yul\":1435:1697   */\n    tag_11:\n        /* \"#utility.yul\":1494:1500   */\n      0x00\n        /* \"#utility.yul\":1543:1545   */\n      0x20\n        /* \"#utility.yul\":1531:1540   */\n      dup3\n        /* \"#utility.yul\":1522:1529   */\n      dup5\n        /* \"#utility.yul\":1518:1541   */\n      sub\n        /* \"#utility.yul\":1514:1546   */\n      slt\n        /* \"#utility.yul\":1511:1513   */\n      iszero\n      tag_67\n      jumpi\n        /* \"#utility.yul\":1559:1560   */\n      0x00\n        /* \"#utility.yul\":1556:1557   */\n      dup1\n        /* \"#utility.yul\":1549:1561   */\n      revert\n        /* \"#utility.yul\":1511:1513   */\n    tag_67:\n        /* \"#utility.yul\":1602:1603   */\n      0x00\n        /* \"#utility.yul\":1627:1680   */\n      tag_68\n        /* \"#utility.yul\":1672:1679   */\n      dup5\n        /* \"#utility.yul\":1663:1669   */\n      dup3\n        /* \"#utility.yul\":1652:1661   */\n      dup6\n        /* \"#utility.yul\":1648:1670   */\n      add\n        /* \"#utility.yul\":1627:1680   */\n      tag_56\n      jump\t// in\n    tag_68:\n        /* \"#utility.yul\":1617:1680   */\n      swap2\n      pop\n        /* \"#utility.yul\":1573:1690   */\n      pop\n        /* \"#utility.yul\":1501:1697   */\n      swap3\n      swap2\n      pop\n      pop\n      jump\t// out\n        /* \"#utility.yul\":1703:1812   */\n    tag_69:\n        /* \"#utility.yul\":1784:1805   */\n      tag_71\n        /* \"#utility.yul\":1799:1804   */\n      dup2\n        /* \"#utility.yul\":1784:1805   */\n      tag_72\n      jump\t// in\n    tag_71:\n        /* \"#utility.yul\":1779:1782   */\n      dup3\n        /* \"#utility.yul\":1772:1806   */\n      mstore\n        /* \"#utility.yul\":1762:1812   */\n      pop\n      pop\n      jump\t// out\n        /* \"#utility.yul\":1818:2182   */\n    tag_73:\n        /* \"#utility.yul\":1906:1909   */\n      0x00\n        /* \"#utility.yul\":1934:1973   */\n      tag_75\n        /* \"#utility.yul\":1967:1972   */\n      dup3\n        /* \"#utility.yul\":1934:1973   */\n      tag_76\n      jump\t// in\n    tag_75:\n        /* \"#utility.yul\":1989:2060   */\n      tag_77\n        /* \"#utility.yul\":2053:2059   */\n      dup2\n        /* \"#utility.yul\":2048:2051   */\n      dup6\n        /* \"#utility.yul\":1989:2060   */\n      tag_78\n      jump\t// in\n    tag_77:\n        /* \"#utility.yul\":1982:2060   */\n      swap4\n      pop\n        /* \"#utility.yul\":2069:2121   */\n      tag_79\n        /* \"#utility.yul\":2114:2120   */\n      dup2\n        /* \"#utility.yul\":2109:2112   */\n      dup6\n        /* \"#utility.yul\":2102:2106   */\n      0x20\n        /* \"#utility.yul\":2095:2100   */\n      dup7\n        /* \"#utility.yul\":2091:2107   */\n      add\n        /* \"#utility.yul\":2069:2121   */\n      tag_80\n      jump\t// in\n    tag_79:\n        /* \"#utility.yul\":2146:2175   */\n      tag_81\n        /* \"#utility.yul\":2168:2174   */\n      dup2\n        /* \"#utility.yul\":2146:2175   */\n      tag_82\n      jump\t// in\n    tag_81:\n        /* \"#utility.yul\":2141:2144   */\n      dup5\n        /* \"#utility.yul\":2137:2176   */\n      add\n        /* \"#utility.yul\":2130:2176   */\n      swap2\n      pop\n        /* \"#utility.yul\":1910:2182   */\n      pop\n      swap3\n      swap2\n      pop\n      pop\n      jump\t// out\n        /* \"#utility.yul\":2188:2306   */\n    tag_83:\n        /* \"#utility.yul\":2275:2299   */\n      tag_85\n        /* \"#utility.yul\":2293:2298   */\n      dup2\n        /* \"#utility.yul\":2275:2299   */\n      tag_86\n      jump\t// in\n    tag_85:\n        /* \"#utility.yul\":2270:2273   */\n      dup3\n        /* \"#utility.yul\":2263:2300   */\n      mstore\n        /* \"#utility.yul\":2253:2306   */\n      pop\n      pop\n      jump\t// out\n        /* \"#utility.yul\":2312:3146   */\n    tag_14:\n        /* \"#utility.yul\":2551:2555   */\n      0x00\n        /* \"#utility.yul\":2589:2592   */\n      0xa0\n        /* \"#utility.yul\":2578:2587   */\n      dup3\n        /* \"#utility.yul\":2574:2593   */\n      add\n        /* \"#utility.yul\":2566:2593   */\n      swap1\n      pop\n        /* \"#utility.yul\":2603:2674   */\n      tag_88\n        /* \"#utility.yul\":2671:2672   */\n      0x00\n        /* \"#utility.yul\":2660:2669   */\n      dup4\n        /* \"#utility.yul\":2656:2673   */\n      add\n        /* \"#utility.yul\":2647:2653   */\n      dup9\n        /* \"#utility.yul\":2603:2674   */\n      tag_83\n      jump\t// in\n    tag_88:\n        /* \"#utility.yul\":2721:2730   */\n      dup2\n        /* \"#utility.yul\":2715:2719   */\n      dup2\n        /* \"#utility.yul\":2711:2731   */\n      sub\n        /* \"#utility.yul\":2706:2708   */\n      0x20\n        /* \"#utility.yul\":2695:2704   */\n      dup4\n        /* \"#utility.yul\":2691:2709   */\n      add\n        /* \"#utility.yul\":2684:2732   */\n      mstore\n        /* \"#utility.yul\":2749:2827   */\n      tag_89\n        /* \"#utility.yul\":2822:2826   */\n      dup2\n        /* \"#utility.yul\":2813:2819   */\n      dup8\n        /* \"#utility.yul\":2749:2827   */\n      tag_73\n      jump\t// in\n    tag_89:\n        /* \"#utility.yul\":2741:2827   */\n      swap1\n      pop\n        /* \"#utility.yul\":2874:2883   */\n      dup2\n        /* \"#utility.yul\":2868:2872   */\n      dup2\n        /* \"#utility.yul\":2864:2884   */\n      sub\n        /* \"#utility.yul\":2859:2861   */\n      0x40\n        /* \"#utility.yul\":2848:2857   */\n      dup4\n        /* \"#utility.yul\":2844:2862   */\n      add\n        /* \"#utility.yul\":2837:2885   */\n      mstore\n        /* \"#utility.yul\":2902:2980   */\n      tag_90\n        /* \"#utility.yul\":2975:2979   */\n      dup2\n        /* \"#utility.yul\":2966:2972   */\n      dup7\n        /* \"#utility.yul\":2902:2980   */\n      tag_73\n      jump\t// in\n    tag_90:\n        /* \"#utility.yul\":2894:2980   */\n      swap1\n      pop\n        /* \"#utility.yul\":2990:3056   */\n      tag_91\n        /* \"#utility.yul\":3052:3054   */\n      0x60\n        /* \"#utility.yul\":3041:3050   */\n      dup4\n        /* \"#utility.yul\":3037:3055   */\n      add\n        /* \"#utility.yul\":3028:3034   */\n      dup6\n        /* \"#utility.yul\":2990:3056   */\n      tag_69\n      jump\t// in\n    tag_91:\n        /* \"#utility.yul\":3066:3139   */\n      tag_92\n        /* \"#utility.yul\":3134:3137   */\n      0x80\n        /* \"#utility.yul\":3123:3132   */\n      dup4\n        /* \"#utility.yul\":3119:3138   */\n      add\n        /* \"#utility.yul\":3110:3116   */\n      dup5\n        /* \"#utility.yul\":3066:3139   */\n      tag_83\n      jump\t// in\n    tag_92:\n        /* \"#utility.yul\":2556:3146   */\n      swap7\n      swap6\n      pop\n      pop\n      pop\n      pop\n      pop\n      pop\n      jump\t// out\n        /* \"#utility.yul\":3152:3281   */\n    tag_48:\n        /* \"#utility.yul\":3186:3192   */\n      0x00\n        /* \"#utility.yul\":3213:3233   */\n      tag_94\n      tag_95\n      jump\t// in\n    tag_94:\n        /* \"#utility.yul\":3203:3233   */\n      swap1\n      pop\n        /* \"#utility.yul\":3242:3275   */\n      tag_96\n        /* \"#utility.yul\":3270:3274   */\n      dup3\n        /* \"#utility.yul\":3262:3268   */\n      dup3\n        /* \"#utility.yul\":3242:3275   */\n      tag_97\n      jump\t// in\n    tag_96:\n        /* \"#utility.yul\":3193:3281   */\n      swap2\n      swap1\n      pop\n      jump\t// out\n        /* \"#utility.yul\":3287:3362   */\n    tag_95:\n        /* \"#utility.yul\":3320:3326   */\n      0x00\n        /* \"#utility.yul\":3353:3355   */\n      0x40\n        /* \"#utility.yul\":3347:3356   */\n      mload\n        /* \"#utility.yul\":3337:3356   */\n      swap1\n      pop\n        /* \"#utility.yul\":3327:3362   */\n      swap1\n      jump\t// out\n        /* \"#utility.yul\":3368:3676   */\n    tag_47:\n        /* \"#utility.yul\":3430:3434   */\n      0x00\n        /* \"#utility.yul\":3520:3538   */\n      0xffffffffffffffff\n        /* \"#utility.yul\":3512:3518   */\n      dup3\n        /* \"#utility.yul\":3509:3539   */\n      gt\n        /* \"#utility.yul\":3506:3508   */\n      iszero\n      tag_100\n      jumpi\n        /* \"#utility.yul\":3542:3560   */\n      tag_101\n      tag_102\n      jump\t// in\n    tag_101:\n        /* \"#utility.yul\":3506:3508   */\n    tag_100:\n        /* \"#utility.yul\":3580:3609   */\n      tag_103\n        /* \"#utility.yul\":3602:3608   */\n      dup3\n        /* \"#utility.yul\":3580:3609   */\n      tag_82\n      jump\t// in\n    tag_103:\n        /* \"#utility.yul\":3572:3609   */\n      swap1\n      pop\n        /* \"#utility.yul\":3664:3668   */\n      0x20\n        /* \"#utility.yul\":3658:3662   */\n      dup2\n        /* \"#utility.yul\":3654:3669   */\n      add\n        /* \"#utility.yul\":3646:3669   */\n      swap1\n      pop\n        /* \"#utility.yul\":3435:3676   */\n      swap2\n      swap1\n      pop\n      jump\t// out\n        /* \"#utility.yul\":3682:3781   */\n    tag_76:\n        /* \"#utility.yul\":3734:3740   */\n      0x00\n        /* \"#utility.yul\":3768:3773   */\n      dup2\n        /* \"#utility.yul\":3762:3774   */\n      mload\n        /* \"#utility.yul\":3752:3774   */\n      swap1\n      pop\n        /* \"#utility.yul\":3741:3781   */\n      swap2\n      swap1\n      pop\n      jump\t// out\n        /* \"#utility.yul\":3787:3956   */\n    tag_78:\n        /* \"#utility.yul\":3871:3882   */\n      0x00\n        /* \"#utility.yul\":3905:3911   */\n      dup3\n        /* \"#utility.yul\":3900:3903   */\n      dup3\n        /* \"#utility.yul\":3893:3912   */\n      mstore\n        /* \"#utility.yul\":3945:3949   */\n      0x20\n        /* \"#utility.yul\":3940:3943   */\n      dup3\n        /* \"#utility.yul\":3936:3950   */\n      add\n        /* \"#utility.yul\":3921:3950   */\n      swap1\n      pop\n        /* \"#utility.yul\":3883:3956   */\n      swap3\n      swap2\n      pop\n      pop\n      jump\t// out\n        /* \"#utility.yul\":3962:4052   */\n    tag_72:\n        /* \"#utility.yul\":3996:4003   */\n      0x00\n        /* \"#utility.yul\":4039:4044   */\n      dup2\n        /* \"#utility.yul\":4032:4045   */\n      iszero\n        /* \"#utility.yul\":4025:4046   */\n      iszero\n        /* \"#utility.yul\":4014:4046   */\n      swap1\n      pop\n        /* \"#utility.yul\":4004:4052   */\n      swap2\n      swap1\n      pop\n      jump\t// out\n        /* \"#utility.yul\":4058:4135   */\n    tag_86:\n        /* \"#utility.yul\":4095:4102   */\n      0x00\n        /* \"#utility.yul\":4124:4129   */\n      dup2\n        /* \"#utility.yul\":4113:4129   */\n      swap1\n      pop\n        /* \"#utility.yul\":4103:4135   */\n      swap2\n      swap1\n      pop\n      jump\t// out\n        /* \"#utility.yul\":4141:4295   */\n    tag_51:\n        /* \"#utility.yul\":4225:4231   */\n      dup3\n        /* \"#utility.yul\":4220:4223   */\n      dup2\n        /* \"#utility.yul\":4215:4218   */\n      dup4\n        /* \"#utility.yul\":4202:4232   */\n      calldatacopy\n        /* \"#utility.yul\":4287:4288   */\n      0x00\n        /* \"#utility.yul\":4278:4284   */\n      dup4\n        /* \"#utility.yul\":4273:4276   */\n      dup4\n        /* \"#utility.yul\":4269:4285   */\n      add\n        /* \"#utility.yul\":4262:4289   */\n      mstore\n        /* \"#utility.yul\":4192:4295   */\n      pop\n      pop\n      pop\n      jump\t// out\n        /* \"#utility.yul\":4301:4608   */\n    tag_80:\n        /* \"#utility.yul\":4369:4370   */\n      0x00\n        /* \"#utility.yul\":4379:4492   */\n    tag_110:\n        /* \"#utility.yul\":4393:4399   */\n      dup4\n        /* \"#utility.yul\":4390:4391   */\n      dup2\n        /* \"#utility.yul\":4387:4400   */\n      lt\n        /* \"#utility.yul\":4379:4492   */\n      iszero\n      tag_112\n      jumpi\n        /* \"#utility.yul\":4478:4479   */\n      dup1\n        /* \"#utility.yul\":4473:4476   */\n      dup3\n        /* \"#utility.yul\":4469:4480   */\n      add\n        /* \"#utility.yul\":4463:4481   */\n      mload\n        /* \"#utility.yul\":4459:4460   */\n      dup2\n        /* \"#utility.yul\":4454:4457   */\n      dup5\n        /* \"#utility.yul\":4450:4461   */\n      add\n        /* \"#utility.yul\":4443:4482   */\n      mstore\n        /* \"#utility.yul\":4415:4417   */\n      0x20\n        /* \"#utility.yul\":4412:4413   */\n      dup2\n        /* \"#utility.yul\":4408:4418   */\n      add\n        /* \"#utility.yul\":4403:4418   */\n      swap1\n      pop\n        /* \"#utility.yul\":4379:4492   */\n      jump(tag_110)\n    tag_112:\n        /* \"#utility.yul\":4510:4516   */\n      dup4\n        /* \"#utility.yul\":4507:4508   */\n      dup2\n        /* \"#utility.yul\":4504:4517   */\n      gt\n        /* \"#utility.yul\":4501:4503   */\n      iszero\n      tag_113\n      jumpi\n        /* \"#utility.yul\":4590:4591   */\n      0x00\n        /* \"#utility.yul\":4581:4587   */\n      dup5\n        /* \"#utility.yul\":4576:4579   */\n      dup5\n        /* \"#utility.yul\":4572:4588   */\n      add\n        /* \"#utility.yul\":4565:4592   */\n      mstore\n        /* \"#utility.yul\":4501:4503   */\n    tag_113:\n        /* \"#utility.yul\":4350:4608   */\n      pop\n      pop\n      pop\n      pop\n      jump\t// out\n        /* \"#utility.yul\":4614:4934   */\n    tag_22:\n        /* \"#utility.yul\":4658:4664   */\n      0x00\n        /* \"#utility.yul\":4695:4696   */\n      0x02\n        /* \"#utility.yul\":4689:4693   */\n      dup3\n        /* \"#utility.yul\":4685:4697   */\n      div\n        /* \"#utility.yul\":4675:4697   */\n      swap1\n      pop\n        /* \"#utility.yul\":4742:4743   */\n      0x01\n        /* \"#utility.yul\":4736:4740   */\n      dup3\n        /* \"#utility.yul\":4732:4744   */\n      and\n        /* \"#utility.yul\":4763:4781   */\n      dup1\n        /* \"#utility.yul\":4753:4755   */\n      tag_115\n      jumpi\n        /* \"#utility.yul\":4819:4823   */\n      0x7f\n        /* \"#utility.yul\":4811:4817   */\n      dup3\n        /* \"#utility.yul\":4807:4824   */\n      and\n        /* \"#utility.yul\":4797:4824   */\n      swap2\n      pop\n        /* \"#utility.yul\":4753:4755   */\n    tag_115:\n        /* \"#utility.yul\":4881:4883   */\n      0x20\n        /* \"#utility.yul\":4873:4879   */\n      dup3\n        /* \"#utility.yul\":4870:4884   */\n      lt\n        /* \"#utility.yul\":4850:4868   */\n      dup2\n        /* \"#utility.yul\":4847:4885   */\n      eq\n        /* \"#utility.yul\":4844:4846   */\n      iszero\n      tag_116\n      jumpi\n        /* \"#utility.yul\":4900:4918   */\n      tag_117\n      tag_118\n      jump\t// in\n    tag_117:\n        /* \"#utility.yul\":4844:4846   */\n    tag_116:\n        /* \"#utility.yul\":4665:4934   */\n      pop\n      swap2\n      swap1\n      pop\n      jump\t// out\n        /* \"#utility.yul\":4940:5221   */\n    tag_97:\n        /* \"#utility.yul\":5023:5050   */\n      tag_120\n        /* \"#utility.yul\":5045:5049   */\n      dup3\n        /* \"#utility.yul\":5023:5050   */\n      tag_82\n      jump\t// in\n    tag_120:\n        /* \"#utility.yul\":5015:5021   */\n      dup2\n        /* \"#utility.yul\":5011:5051   */\n      add\n        /* \"#utility.yul\":5153:5159   */\n      dup2\n        /* \"#utility.yul\":5141:5151   */\n      dup2\n        /* \"#utility.yul\":5138:5160   */\n      lt\n        /* \"#utility.yul\":5117:5135   */\n      0xffffffffffffffff\n        /* \"#utility.yul\":5105:5115   */\n      dup3\n        /* \"#utility.yul\":5102:5136   */\n      gt\n        /* \"#utility.yul\":5099:5161   */\n      or\n        /* \"#utility.yul\":5096:5098   */\n      iszero\n      tag_121\n      jumpi\n        /* \"#utility.yul\":5164:5182   */\n      tag_122\n      tag_102\n      jump\t// in\n    tag_122:\n        /* \"#utility.yul\":5096:5098   */\n    tag_121:\n        /* \"#utility.yul\":5204:5214   */\n      dup1\n        /* \"#utility.yul\":5200:5202   */\n      0x40\n        /* \"#utility.yul\":5193:5215   */\n      mstore\n        /* \"#utility.yul\":4983:5221   */\n      pop\n      pop\n      pop\n      jump\t// out\n        /* \"#utility.yul\":5227:5460   */\n    tag_20:\n        /* \"#utility.yul\":5266:5269   */\n      0x00\n        /* \"#utility.yul\":5289:5313   */\n      tag_124\n        /* \"#utility.yul\":5307:5312   */\n      dup3\n        /* \"#utility.yul\":5289:5313   */\n      tag_86\n      jump\t// in\n    tag_124:\n        /* \"#utility.yul\":5280:5313   */\n      swap2\n      pop\n        /* \"#utility.yul\":5335:5401   */\n      0xffffffffffffffffffffffffffffffffffffffffffffffffffffffffffffffff\n        /* \"#utility.yul\":5328:5333   */\n      dup3\n        /* \"#utility.yul\":5325:5402   */\n      eq\n        /* \"#utility.yul\":5322:5324   */\n      iszero\n      tag_125\n      jumpi\n        /* \"#utility.yul\":5405:5423   */\n      tag_126\n      tag_127\n      jump\t// in\n    tag_126:\n        /* \"#utility.yul\":5322:5324   */\n    tag_125:\n        /* \"#utility.yul\":5452:5453   */\n      0x01\n        /* \"#utility.yul\":5445:5450   */\n      dup3\n        /* \"#utility.yul\":5441:5454   */\n      add\n        /* \"#utility.yul\":5434:5454   */\n      swap1\n      pop\n        /* \"#utility.yul\":5270:5460   */\n      swap2\n      swap1\n      pop\n      jump\t// out\n        /* \"#utility.yul\":5466:5646   */\n    tag_127:\n        /* \"#utility.yul\":5514:5591   */\n      0x4e487b7100000000000000000000000000000000000000000000000000000000\n        /* \"#utility.yul\":5511:5512   */\n      0x00\n        /* \"#utility.yul\":5504:5592   */\n      mstore\n        /* \"#utility.yul\":5611:5615   */\n      0x11\n        /* \"#utility.yul\":5608:5609   */\n      0x04\n        /* \"#utility.yul\":5601:5616   */\n      mstore\n        /* \"#utility.yul\":5635:5639   */\n      0x24\n        /* \"#utility.yul\":5632:5633   */\n      0x00\n        /* \"#utility.yul\":5625:5640   */\n      revert\n        /* \"#utility.yul\":5652:5832   */\n    tag_118:\n        /* \"#utility.yul\":5700:5777   */\n      0x4e487b7100000000000000000000000000000000000000000000000000000000\n        /* \"#utility.yul\":5697:5698   */\n      0x00\n        /* \"#utility.yul\":5690:5778   */\n      mstore\n        /* \"#utility.yul\":5797:5801   */\n      0x22\n        /* \"#utility.yul\":5794:5795   */\n      0x04\n        /* \"#utility.yul\":5787:5802   */\n      mstore\n        /* \"#utility.yul\":5821:5825   */\n      0x24\n        /* \"#utility.yul\":5818:5819   */\n      0x00\n        /* \"#utility.yul\":5811:5826   */\n      revert\n        /* \"#utility.yul\":5838:6018   */\n    tag_102:\n        /* \"#utility.yul\":5886:5963   */\n      0x4e487b7100000000000000000000000000000000000000000000000000000000\n        /* \"#utility.yul\":5883:5884   */\n      0x00\n        /* \"#utility.yul\":5876:5964   */\n      mstore\n        /* \"#utility.yul\":5983:5987   */\n      0x41\n        /* \"#utility.yul\":5980:5981   */\n      0x04\n        /* \"#utility.yul\":5973:5988   */\n      mstore\n        /* \"#utility.yul\":6007:6011   */\n      0x24\n        /* \"#utility.yul\":6004:6005   */\n      0x00\n        /* \"#utility.yul\":5997:6012   */\n      revert\n        /* \"#utility.yul\":6024:6126   */\n    tag_82:\n        /* \"#utility.yul\":6065:6071   */\n      0x00\n        /* \"#utility.yul\":6116:6118   */\n      0x1f\n        /* \"#utility.yul\":6112:6119   */\n      not\n        /* \"#utility.yul\":6107:6109   */\n      0x1f\n        /* \"#utility.yul\":6100:6105   */\n      dup4\n        /* \"#utility.yul\":6096:6110   */\n      add\n        /* \"#utility.yul\":6092:6120   */\n      and\n        /* \"#utility.yul\":6082:6120   */\n      swap1\n      pop\n        /* \"#utility.yul\":6072:6126   */\n      swap2\n      swap1\n      pop\n      jump\t// out\n        /* \"#utility.yul\":6132:6254   */\n    tag_59:\n        /* \"#utility.yul\":6205:6229   */\n      tag_133\n        /* \"#utility.yul\":6223:6228   */\n      dup2\n        /* \"#utility.yul\":6205:6229   */\n      tag_86\n      jump\t// in\n    tag_133:\n        /* \"#utility.yul\":6198:6203   */\n      dup2\n        /* \"#utility.yul\":6195:6230   */\n      eq\n        /* \"#utility.yul\":6185:6187   */\n      tag_134\n      jumpi\n        /* \"#utility.yul\":6244:6245   */\n      0x00\n        /* \"#utility.yul\":6241:6242   */\n      dup1\n        /* \"#utility.yul\":6234:6246   */\n      revert\n        /* \"#utility.yul\":6185:6187   */\n    tag_134:\n        /* \"#utility.yul\":6175:6254   */\n      pop\n      jump\t// out\n\n    auxdata: 0xa2646970667358221220d1743f56aba177a6f453ae7e561342f15cb8adc43554c7a9e504d00873d13efa64736f6c63430008040033\n}\n",
				"bytecode": {
					"linkReferences": {},
					"object": "60806040526000805534801561001457600080fd5b50610778806100246000396000f3fe608060405234801561001057600080fd5b50600436106100365760003560e01c8063292a45851461003b578063f4b2a46e14610057575b600080fd5b610055600480360381019061005091906103ca565b61008b565b005b610071600480360381019061006c9190610436565b610157565b6040516100829594939291906104b6565b60405180910390f35b6040518060a0016040528060005481526020018381526020018281526020016000151581526020014281525060016000805481526020019081526020016000206000820151816000015560208201518160010190805190602001906100f19291906102aa565b50604082015181600201908051906020019061010e9291906102aa565b5060608201518160030160006101000a81548160ff0219169083151502179055506080820151816004015590505060008081548092919061014e90610644565b91905055505050565b6001602052806000526040600020600091509050806000015490806001018054610180906105e1565b80601f01602080910402602001604051908101604052809291908181526020018280546101ac906105e1565b80156101f95780601f106101ce576101008083540402835291602001916101f9565b820191906000526020600020905b8154815290600101906020018083116101dc57829003601f168201915b50505050509080600201805461020e906105e1565b80601f016020809104026020016040519081016040528092919081815260200182805461023a906105e1565b80156102875780601f1061025c57610100808354040283529160200191610287565b820191906000526020600020905b81548152906001019060200180831161026a57829003601f168201915b5050505050908060030160009054906101000a900460ff16908060040154905085565b8280546102b6906105e1565b90600052602060002090601f0160209004810192826102d8576000855561031f565b82601f106102f157805160ff191683800117855561031f565b8280016001018555821561031f579182015b8281111561031e578251825591602001919060010190610303565b5b50905061032c9190610330565b5090565b5b80821115610349576000816000905550600101610331565b5090565b600061036061035b8461053c565b610517565b90508281526020810184848401111561037857600080fd5b61038384828561059f565b509392505050565b600082601f83011261039c57600080fd5b81356103ac84826020860161034d565b91505092915050565b6000813590506103c48161072b565b92915050565b600080604083850312156103dd57600080fd5b600083013567ffffffffffffffff8111156103f757600080fd5b6104038582860161038b565b925050602083013567ffffffffffffffff81111561042057600080fd5b61042c8582860161038b565b9150509250929050565b60006020828403121561044857600080fd5b6000610456848285016103b5565b91505092915050565b61046881610589565b82525050565b60006104798261056d565b6104838185610578565b93506104938185602086016105ae565b61049c8161071a565b840191505092915050565b6104b081610595565b82525050565b600060a0820190506104cb60008301886104a7565b81810360208301526104dd818761046e565b905081810360408301526104f1818661046e565b9050610500606083018561045f565b61050d60808301846104a7565b9695505050505050565b6000610521610532565b905061052d8282610613565b919050565b6000604051905090565b600067ffffffffffffffff821115610557576105566106eb565b5b6105608261071a565b9050602081019050919050565b600081519050919050565b600082825260208201905092915050565b60008115159050919050565b6000819050919050565b82818337600083830152505050565b60005b838110156105cc5780820151818401526020810190506105b1565b838111156105db576000848401525b50505050565b600060028204905060018216806105f957607f821691505b6020821081141561060d5761060c6106bc565b5b50919050565b61061c8261071a565b810181811067ffffffffffffffff8211171561063b5761063a6106eb565b5b80604052505050565b600061064f82610595565b91507fffffffffffffffffffffffffffffffffffffffffffffffffffffffffffffffff8214156106825761068161068d565b5b600182019050919050565b7f4e487b7100000000000000000000000000000000000000000000000000000000600052601160045260246000fd5b7f4e487b7100000000000000000000000000000000000000000000000000000000600052602260045260246000fd5b7f4e487b7100000000000000000000000000000000000000000000000000000000600052604160045260246000fd5b6000601f19601f8301169050919050565b61073481610595565b811461073f57600080fd5b5056fea2646970667358221220d1743f56aba177a6f453ae7e561342f15cb8adc43554c7a9e504d00873d13efa64736f6c63430008040033",
					"opcodes": "PUSH1 0x80 PUSH1 0x40 MSTORE PUSH1 0x0 DUP1 SSTORE CALLVALUE DUP1 ISZERO PUSH2 0x14 JUMPI PUSH1 0x0 DUP1 REVERT JUMPDEST POP PUSH2 0x778 DUP1 PUSH2 0x24 PUSH1 0x0 CODECOPY PUSH1 0x0 RETURN INVALID PUSH1 0x80 PUSH1 0x40 MSTORE CALLVALUE DUP1 ISZERO PUSH2 0x10 JUMPI PUSH1 0x0 DUP1 REVERT JUMPDEST POP PUSH1 0x4 CALLDATASIZE LT PUSH2 0x36 JUMPI PUSH1 0x0 CALLDATALOAD PUSH1 0xE0 SHR DUP1 PUSH4 0x292A4585 EQ PUSH2 0x3B JUMPI DUP1 PUSH4 0xF4B2A46E EQ PUSH2 0x57 JUMPI JUMPDEST PUSH1 0x0 DUP1 REVERT JUMPDEST PUSH2 0x55 PUSH1 0x4 DUP1 CALLDATASIZE SUB DUP2 ADD SWAP1 PUSH2 0x50 SWAP2 SWAP1 PUSH2 0x3CA JUMP JUMPDEST PUSH2 0x8B JUMP JUMPDEST STOP JUMPDEST PUSH2 0x71 PUSH1 0x4 DUP1 CALLDATASIZE SUB DUP2 ADD SWAP1 PUSH2 0x6C SWAP2 SWAP1 PUSH2 0x436 JUMP JUMPDEST PUSH2 0x157 JUMP JUMPDEST PUSH1 0x40 MLOAD PUSH2 0x82 SWAP6 SWAP5 SWAP4 SWAP3 SWAP2 SWAP1 PUSH2 0x4B6 JUMP JUMPDEST PUSH1 0x40 MLOAD DUP1 SWAP2 SUB SWAP1 RETURN JUMPDEST PUSH1 0x40 MLOAD DUP1 PUSH1 0xA0 ADD PUSH1 0x40 MSTORE DUP1 PUSH1 0x0 SLOAD DUP2 MSTORE PUSH1 0x20 ADD DUP4 DUP2 MSTORE PUSH1 0x20 ADD DUP3 DUP2 MSTORE PUSH1 0x20 ADD PUSH1 0x0 ISZERO ISZERO DUP2 MSTORE PUSH1 0x20 ADD TIMESTAMP DUP2 MSTORE POP PUSH1 0x1 PUSH1 0x0 DUP1 SLOAD DUP2 MSTORE PUSH1 0x20 ADD SWAP1 DUP2 MSTORE PUSH1 0x20 ADD PUSH1 0x0 KECCAK256 PUSH1 0x0 DUP3 ADD MLOAD DUP2 PUSH1 0x0 ADD SSTORE PUSH1 0x20 DUP3 ADD MLOAD DUP2 PUSH1 0x1 ADD SWAP1 DUP1 MLOAD SWAP1 PUSH1 0x20 ADD SWAP1 PUSH2 0xF1 SWAP3 SWAP2 SWAP1 PUSH2 0x2AA JUMP JUMPDEST POP PUSH1 0x40 DUP3 ADD MLOAD DUP2 PUSH1 0x2 ADD SWAP1 DUP1 MLOAD SWAP1 PUSH1 0x20 ADD SWAP1 PUSH2 0x10E SWAP3 SWAP2 SWAP1 PUSH2 0x2AA JUMP JUMPDEST POP PUSH1 0x60 DUP3 ADD MLOAD DUP2 PUSH1 0x3 ADD PUSH1 0x0 PUSH2 0x100 EXP DUP2 SLOAD DUP2 PUSH1 0xFF MUL NOT AND SWAP1 DUP4 ISZERO ISZERO MUL OR SWAP1 SSTORE POP PUSH1 0x80 DUP3 ADD MLOAD DUP2 PUSH1 0x4 ADD SSTORE SWAP1 POP POP PUSH1 0x0 DUP1 DUP2 SLOAD DUP1 SWAP3 SWAP2 SWAP1 PUSH2 0x14E SWAP1 PUSH2 0x644 JUMP JUMPDEST SWAP2 SWAP1 POP SSTORE POP POP POP JUMP JUMPDEST PUSH1 0x1 PUSH1 0x20 MSTORE DUP1 PUSH1 0x0 MSTORE PUSH1 0x40 PUSH1 0x0 KECCAK256 PUSH1 0x0 SWAP2 POP SWAP1 POP DUP1 PUSH1 0x0 ADD SLOAD SWAP1 DUP1 PUSH1 0x1 ADD DUP1 SLOAD PUSH2 0x180 SWAP1 PUSH2 0x5E1 JUMP JUMPDEST DUP1 PUSH1 0x1F ADD PUSH1 0x20 DUP1 SWAP2 DIV MUL PUSH1 0x20 ADD PUSH1 0x40 MLOAD SWAP1 DUP2 ADD PUSH1 0x40 MSTORE DUP1 SWAP3 SWAP2 SWAP1 DUP2 DUP2 MSTORE PUSH1 0x20 ADD DUP3 DUP1 SLOAD PUSH2 0x1AC SWAP1 PUSH2 0x5E1 JUMP JUMPDEST DUP1 ISZERO PUSH2 0x1F9 JUMPI DUP1 PUSH1 0x1F LT PUSH2 0x1CE JUMPI PUSH2 0x100 DUP1 DUP4 SLOAD DIV MUL DUP4 MSTORE SWAP2 PUSH1 0x20 ADD SWAP2 PUSH2 0x1F9 JUMP JUMPDEST DUP3 ADD SWAP2 SWAP1 PUSH1 0x0 MSTORE PUSH1 0x20 PUSH1 0x0 KECCAK256 SWAP1 JUMPDEST DUP2 SLOAD DUP2 MSTORE SWAP1 PUSH1 0x1 ADD SWAP1 PUSH1 0x20 ADD DUP1 DUP4 GT PUSH2 0x1DC JUMPI DUP3 SWAP1 SUB PUSH1 0x1F AND DUP3 ADD SWAP2 JUMPDEST POP POP POP POP POP SWAP1 DUP1 PUSH1 0x2 ADD DUP1 SLOAD PUSH2 0x20E SWAP1 PUSH2 0x5E1 JUMP JUMPDEST DUP1 PUSH1 0x1F ADD PUSH1 0x20 DUP1 SWAP2 DIV MUL PUSH1 0x20 ADD PUSH1 0x40 MLOAD SWAP1 DUP2 ADD PUSH1 0x40 MSTORE DUP1 SWAP3 SWAP2 SWAP1 DUP2 DUP2 MSTORE PUSH1 0x20 ADD DUP3 DUP1 SLOAD PUSH2 0x23A SWAP1 PUSH2 0x5E1 JUMP JUMPDEST DUP1 ISZERO PUSH2 0x287 JUMPI DUP1 PUSH1 0x1F LT PUSH2 0x25C JUMPI PUSH2 0x100 DUP1 DUP4 SLOAD DIV MUL DUP4 MSTORE SWAP2 PUSH1 0x20 ADD SWAP2 PUSH2 0x287 JUMP JUMPDEST DUP3 ADD SWAP2 SWAP1 PUSH1 0x0 MSTORE PUSH1 0x20 PUSH1 0x0 KECCAK256 SWAP1 JUMPDEST DUP2 SLOAD DUP2 MSTORE SWAP1 PUSH1 0x1 ADD SWAP1 PUSH1 0x20 ADD DUP1 DUP4 GT PUSH2 0x26A JUMPI DUP3 SWAP1 SUB PUSH1 0x1F AND DUP3 ADD SWAP2 JUMPDEST POP POP POP POP POP SWAP1 DUP1 PUSH1 0x3 ADD PUSH1 0x0 SWAP1 SLOAD SWAP1 PUSH2 0x100 EXP SWAP1 DIV PUSH1 0xFF AND SWAP1 DUP1 PUSH1 0x4 ADD SLOAD SWAP1 POP DUP6 JUMP JUMPDEST DUP3 DUP1 SLOAD PUSH2 0x2B6 SWAP1 PUSH2 0x5E1 JUMP JUMPDEST SWAP1 PUSH1 0x0 MSTORE PUSH1 0x20 PUSH1 0x0 KECCAK256 SWAP1 PUSH1 0x1F ADD PUSH1 0x20 SWAP1 DIV DUP2 ADD SWAP3 DUP3 PUSH2 0x2D8 JUMPI PUSH1 0x0 DUP6 SSTORE PUSH2 0x31F JUMP JUMPDEST DUP3 PUSH1 0x1F LT PUSH2 0x2F1 JUMPI DUP1 MLOAD PUSH1 0xFF NOT AND DUP4 DUP1 ADD OR DUP6 SSTORE PUSH2 0x31F JUMP JUMPDEST DUP3 DUP1 ADD PUSH1 0x1 ADD DUP6 SSTORE DUP3 ISZERO PUSH2 0x31F JUMPI SWAP2 DUP3 ADD JUMPDEST DUP3 DUP2 GT ISZERO PUSH2 0x31E JUMPI DUP3 MLOAD DUP3 SSTORE SWAP2 PUSH1 0x20 ADD SWAP2 SWAP1 PUSH1 0x1 ADD SWAP1 PUSH2 0x303 JUMP JUMPDEST JUMPDEST POP SWAP1 POP PUSH2 0x32C SWAP2 SWAP1 PUSH2 0x330 JUMP JUMPDEST POP SWAP1 JUMP JUMPDEST JUMPDEST DUP1 DUP3 GT ISZERO PUSH2 0x349 JUMPI PUSH1 0x0 DUP2 PUSH1 0x0 SWAP1 SSTORE POP PUSH1 0x1 ADD PUSH2 0x331 JUMP JUMPDEST POP SWAP1 JUMP JUMPDEST PUSH1 0x0 PUSH2 0x360 PUSH2 0x35B DUP5 PUSH2 0x53C JUMP JUMPDEST PUSH2 0x517 JUMP JUMPDEST SWAP1 POP DUP3 DUP2 MSTORE PUSH1 0x20 DUP2 ADD DUP5 DUP5 DUP5 ADD GT ISZERO PUSH2 0x378 JUMPI PUSH1 0x0 DUP1 REVERT JUMPDEST PUSH2 0x383 DUP5 DUP3 DUP6 PUSH2 0x59F JUMP JUMPDEST POP SWAP4 SWAP3 POP POP POP JUMP JUMPDEST PUSH1 0x0 DUP3 PUSH1 0x1F DUP4 ADD SLT PUSH2 0x39C JUMPI PUSH1 0x0 DUP1 REVERT JUMPDEST DUP2 CALLDATALOAD PUSH2 0x3AC DUP5 DUP3 PUSH1 0x20 DUP7 ADD PUSH2 0x34D JUMP JUMPDEST SWAP2 POP POP SWAP3 SWAP2 POP POP JUMP JUMPDEST PUSH1 0x0 DUP2 CALLDATALOAD SWAP1 POP PUSH2 0x3C4 DUP2 PUSH2 0x72B JUMP JUMPDEST SWAP3 SWAP2 POP POP JUMP JUMPDEST PUSH1 0x0 DUP1 PUSH1 0x40 DUP4 DUP6 SUB SLT ISZERO PUSH2 0x3DD JUMPI PUSH1 0x0 DUP1 REVERT JUMPDEST PUSH1 0x0 DUP4 ADD CALLDATALOAD PUSH8 0xFFFFFFFFFFFFFFFF DUP2 GT ISZERO PUSH2 0x3F7 JUMPI PUSH1 0x0 DUP1 REVERT JUMPDEST PUSH2 0x403 DUP6 DUP3 DUP7 ADD PUSH2 0x38B JUMP JUMPDEST SWAP3 POP POP PUSH1 0x20 DUP4 ADD CALLDATALOAD PUSH8 0xFFFFFFFFFFFFFFFF DUP2 GT ISZERO PUSH2 0x420 JUMPI PUSH1 0x0 DUP1 REVERT JUMPDEST PUSH2 0x42C DUP6 DUP3 DUP7 ADD PUSH2 0x38B JUMP JUMPDEST SWAP2 POP POP SWAP3 POP SWAP3 SWAP1 POP JUMP JUMPDEST PUSH1 0x0 PUSH1 0x20 DUP3 DUP5 SUB SLT ISZERO PUSH2 0x448 JUMPI PUSH1 0x0 DUP1 REVERT JUMPDEST PUSH1 0x0 PUSH2 0x456 DUP5 DUP3 DUP6 ADD PUSH2 0x3B5 JUMP JUMPDEST SWAP2 POP POP SWAP3 SWAP2 POP POP JUMP JUMPDEST PUSH2 0x468 DUP2 PUSH2 0x589 JUMP JUMPDEST DUP3 MSTORE POP POP JUMP JUMPDEST PUSH1 0x0 PUSH2 0x479 DUP3 PUSH2 0x56D JUMP JUMPDEST PUSH2 0x483 DUP2 DUP6 PUSH2 0x578 JUMP JUMPDEST SWAP4 POP PUSH2 0x493 DUP2 DUP6 PUSH1 0x20 DUP7 ADD PUSH2 0x5AE JUMP JUMPDEST PUSH2 0x49C DUP2 PUSH2 0x71A JUMP JUMPDEST DUP5 ADD SWAP2 POP POP SWAP3 SWAP2 POP POP JUMP JUMPDEST PUSH2 0x4B0 DUP2 PUSH2 0x595 JUMP JUMPDEST DUP3 MSTORE POP POP JUMP JUMPDEST PUSH1 0x0 PUSH1 0xA0 DUP3 ADD SWAP1 POP PUSH2 0x4CB PUSH1 0x0 DUP4 ADD DUP9 PUSH2 0x4A7 JUMP JUMPDEST DUP2 DUP2 SUB PUSH1 0x20 DUP4 ADD MSTORE PUSH2 0x4DD DUP2 DUP8 PUSH2 0x46E JUMP JUMPDEST SWAP1 POP DUP2 DUP2 SUB PUSH1 0x40 DUP4 ADD MSTORE PUSH2 0x4F1 DUP2 DUP7 PUSH2 0x46E JUMP JUMPDEST SWAP1 POP PUSH2 0x500 PUSH1 0x60 DUP4 ADD DUP6 PUSH2 0x45F JUMP JUMPDEST PUSH2 0x50D PUSH1 0x80 DUP4 ADD DUP5 PUSH2 0x4A7 JUMP JUMPDEST SWAP7 SWAP6 POP POP POP POP POP POP JUMP JUMPDEST PUSH1 0x0 PUSH2 0x521 PUSH2 0x532 JUMP JUMPDEST SWAP1 POP PUSH2 0x52D DUP3 DUP3 PUSH2 0x613 JUMP JUMPDEST SWAP2 SWAP1 POP JUMP JUMPDEST PUSH1 0x0 PUSH1 0x40 MLOAD SWAP1 POP SWAP1 JUMP JUMPDEST PUSH1 0x0 PUSH8 0xFFFFFFFFFFFFFFFF DUP3 GT ISZERO PUSH2 0x557 JUMPI PUSH2 0x556 PUSH2 0x6EB JUMP JUMPDEST JUMPDEST PUSH2 0x560 DUP3 PUSH2 0x71A JUMP JUMPDEST SWAP1 POP PUSH1 0x20 DUP2 ADD SWAP1 POP SWAP2 SWAP1 POP JUMP JUMPDEST PUSH1 0x0 DUP2 MLOAD SWAP1 POP SWAP2 SWAP1 POP JUMP JUMPDEST PUSH1 0x0 DUP3 DUP3 MSTORE PUSH1 0x20 DUP3 ADD SWAP1 POP SWAP3 SWAP2 POP POP JUMP JUMPDEST PUSH1 0x0 DUP2 ISZERO ISZERO SWAP1 POP SWAP2 SWAP1 POP JUMP JUMPDEST PUSH1 0x0 DUP2 SWAP1 POP SWAP2 SWAP1 POP JUMP JUMPDEST DUP3 DUP2 DUP4 CALLDATACOPY PUSH1 0x0 DUP4 DUP4 ADD MSTORE POP POP POP JUMP JUMPDEST PUSH1 0x0 JUMPDEST DUP4 DUP2 LT ISZERO PUSH2 0x5CC JUMPI DUP1 DUP3 ADD MLOAD DUP2 DUP5 ADD MSTORE PUSH1 0x20 DUP2 ADD SWAP1 POP PUSH2 0x5B1 JUMP JUMPDEST DUP4 DUP2 GT ISZERO PUSH2 0x5DB JUMPI PUSH1 0x0 DUP5 DUP5 ADD MSTORE JUMPDEST POP POP POP POP JUMP JUMPDEST PUSH1 0x0 PUSH1 0x2 DUP3 DIV SWAP1 POP PUSH1 0x1 DUP3 AND DUP1 PUSH2 0x5F9 JUMPI PUSH1 0x7F DUP3 AND SWAP2 POP JUMPDEST PUSH1 0x20 DUP3 LT DUP2 EQ ISZERO PUSH2 0x60D JUMPI PUSH2 0x60C PUSH2 0x6BC JUMP JUMPDEST JUMPDEST POP SWAP2 SWAP1 POP JUMP JUMPDEST PUSH2 0x61C DUP3 PUSH2 0x71A JUMP JUMPDEST DUP2 ADD DUP2 DUP2 LT PUSH8 0xFFFFFFFFFFFFFFFF DUP3 GT OR ISZERO PUSH2 0x63B JUMPI PUSH2 0x63A PUSH2 0x6EB JUMP JUMPDEST JUMPDEST DUP1 PUSH1 0x40 MSTORE POP POP POP JUMP JUMPDEST PUSH1 0x0 PUSH2 0x64F DUP3 PUSH2 0x595 JUMP JUMPDEST SWAP2 POP PUSH32 0xFFFFFFFFFFFFFFFFFFFFFFFFFFFFFFFFFFFFFFFFFFFFFFFFFFFFFFFFFFFFFFFF DUP3 EQ ISZERO PUSH2 0x682 JUMPI PUSH2 0x681 PUSH2 0x68D JUMP JUMPDEST JUMPDEST PUSH1 0x1 DUP3 ADD SWAP1 POP SWAP2 SWAP1 POP JUMP JUMPDEST PUSH32 0x4E487B7100000000000000000000000000000000000000000000000000000000 PUSH1 0x0 MSTORE PUSH1 0x11 PUSH1 0x4 MSTORE PUSH1 0x24 PUSH1 0x0 REVERT JUMPDEST PUSH32 0x4E487B7100000000000000000000000000000000000000000000000000000000 PUSH1 0x0 MSTORE PUSH1 0x22 PUSH1 0x4 MSTORE PUSH1 0x24 PUSH1 0x0 REVERT JUMPDEST PUSH32 0x4E487B7100000000000000000000000000000000000000000000000000000000 PUSH1 0x0 MSTORE PUSH1 0x41 PUSH1 0x4 MSTORE PUSH1 0x24 PUSH1 0x0 REVERT JUMPDEST PUSH1 0x0 PUSH1 0x1F NOT PUSH1 0x1F DUP4 ADD AND SWAP1 POP SWAP2 SWAP1 POP JUMP JUMPDEST PUSH2 0x734 DUP2 PUSH2 0x595 JUMP JUMPDEST DUP2 EQ PUSH2 0x73F JUMPI PUSH1 0x0 DUP1 REVERT JUMPDEST POP JUMP INVALID LOG2 PUSH5 0x6970667358 0x22 SLT KECCAK256 0xD1 PUSH21 0x3F56ABA177A6F453AE7E561342F15CB8ADC43554C7 0xA9 0xE5 DIV 0xD0 ADDMOD PUSH20 0xD13EFA64736F6C63430008040033000000000000 "
				},
				"gasEstimates": {
					"creation": {
						"codeDepositCost": "382400",
						"executionCost": "5424",
						"totalCost": "387824"
					},
					"external": {
						"Tasks(uint256)": "infinite",
						"createTask(string,string)": "infinite"
					}
				},
				"methodIdentifiers": {
					"Tasks(uint256)": "f4b2a46e",
					"createTask(string,string)": "292a4585"
				}
			},
			"storageLayout": {
				"storage": [
					{
						"astId": 4,
						"contract": "contracts/TaskManager/TaskContract.sol:TaskContract",
						"label": "TaskCounter",
						"offset": 0,
						"slot": "0",
						"type": "t_uint256"
					},
					{
						"astId": 20,
						"contract": "contracts/TaskManager/TaskContract.sol:TaskContract",
						"label": "Tasks",
						"offset": 0,
						"slot": "1",
						"type": "t_mapping(t_uint256,t_struct(Task)15_storage)"
					}
				],
				"types": {
					"t_bool": {
						"encoding": "inplace",
						"label": "bool",
						"numberOfBytes": "1"
					},
					"t_mapping(t_uint256,t_struct(Task)15_storage)": {
						"encoding": "mapping",
						"key": "t_uint256",
						"label": "mapping(uint256 => struct TaskContract.Task)",
						"numberOfBytes": "32",
						"value": "t_struct(Task)15_storage"
					},
					"t_string_storage": {
						"encoding": "bytes",
						"label": "string",
						"numberOfBytes": "32"
					},
					"t_struct(Task)15_storage": {
						"encoding": "inplace",
						"label": "struct TaskContract.Task",
						"members": [
							{
								"astId": 6,
								"contract": "contracts/TaskManager/TaskContract.sol:TaskContract",
								"label": "Id",
								"offset": 0,
								"slot": "0",
								"type": "t_uint256"
							},
							{
								"astId": 8,
								"contract": "contracts/TaskManager/TaskContract.sol:TaskContract",
								"label": "Title",
								"offset": 0,
								"slot": "1",
								"type": "t_string_storage"
							},
							{
								"astId": 10,
								"contract": "contracts/TaskManager/TaskContract.sol:TaskContract",
								"label": "Description",
								"offset": 0,
								"slot": "2",
								"type": "t_string_storage"
							},
							{
								"astId": 12,
								"contract": "contracts/TaskManager/TaskContract.sol:TaskContract",
								"label": "Done",
								"offset": 0,
								"slot": "3",
								"type": "t_bool"
							},
							{
								"astId": 14,
								"contract": "contracts/TaskManager/TaskContract.sol:TaskContract",
								"label": "createdAt",
								"offset": 0,
								"slot": "4",
								"type": "t_uint256"
							}
						],
						"numberOfBytes": "160"
					},
					"t_uint256": {
						"encoding": "inplace",
						"label": "uint256",
						"numberOfBytes": "32"
					}
				}
			},
			"userdoc": {
				"kind": "user",
				"methods": {},
				"version": 1
			}
		}
	}
}