{
	"contracts/TaskManager/TaskContract.sol": {
		"TaskContract": {
			"abi": [
				{
					"inputs": [],
					"name": "TaskCounter",
					"outputs": [
						{
							"internalType": "uint256",
							"name": "",
							"type": "uint256"
						}
					],
					"stateMutability": "view",
					"type": "function"
				},
				{
					"inputs": [
						{
							"internalType": "uint256",
							"name": "",
							"type": "uint256"
						}
					],
					"name": "Tasks",
					"outputs": [
						{
							"internalType": "uint256",
							"name": "Id",
							"type": "uint256"
						},
						{
							"internalType": "string",
							"name": "Title",
							"type": "string"
						},
						{
							"internalType": "string",
							"name": "Description",
							"type": "string"
						},
						{
							"internalType": "bool",
							"name": "Done",
							"type": "bool"
						},
						{
							"internalType": "uint256",
							"name": "createdAt",
							"type": "uint256"
						}
					],
					"stateMutability": "view",
					"type": "function"
				},
				{
					"inputs": [
						{
							"internalType": "uint256",
							"name": "_id",
							"type": "uint256"
						}
					],
					"name": "changeStatus",
					"outputs": [],
					"stateMutability": "nonpayable",
					"type": "function"
				},
				{
					"inputs": [
						{
							"internalType": "string",
							"name": "_title",
							"type": "string"
						},
						{
							"internalType": "string",
							"name": "_description",
							"type": "string"
						}
					],
					"name": "createTask",
					"outputs": [],
					"stateMutability": "nonpayable",
					"type": "function"
				}
			],
			"devdoc": {
				"kind": "dev",
				"methods": {},
				"version": 1
			},
			"evm": {
				"assembly": "    /* \"contracts/TaskManager/TaskContract.sol\":59:700  contract TaskContract {\r... */\n  mstore(0x40, 0x80)\n    /* \"contracts/TaskManager/TaskContract.sol\":119:120  0 */\n  0x00\n    /* \"contracts/TaskManager/TaskContract.sol\":90:120  uint256 public TaskCounter = 0 */\n  dup1\n  sstore\n    /* \"contracts/TaskManager/TaskContract.sol\":59:700  contract TaskContract {\r... */\n  callvalue\n  dup1\n  iszero\n  tag_1\n  jumpi\n  0x00\n  dup1\n  revert\ntag_1:\n  pop\n  dataSize(sub_0)\n  dup1\n  dataOffset(sub_0)\n  0x00\n  codecopy\n  0x00\n  return\nstop\n\nsub_0: assembly {\n        /* \"contracts/TaskManager/TaskContract.sol\":59:700  contract TaskContract {\r... */\n      mstore(0x40, 0x80)\n      callvalue\n      dup1\n      iszero\n      tag_1\n      jumpi\n      0x00\n      dup1\n      revert\n    tag_1:\n      pop\n      jumpi(tag_2, lt(calldatasize, 0x04))\n      shr(0xe0, calldataload(0x00))\n      dup1\n      0x06737d97\n      eq\n      tag_3\n      jumpi\n      dup1\n      0x292a4585\n      eq\n      tag_4\n      jumpi\n      dup1\n      0xe8025d77\n      eq\n      tag_5\n      jumpi\n      dup1\n      0xf4b2a46e\n      eq\n      tag_6\n      jumpi\n    tag_2:\n      0x00\n      dup1\n      revert\n        /* \"contracts/TaskManager/TaskContract.sol\":90:120  uint256 public TaskCounter = 0 */\n    tag_3:\n      tag_7\n      tag_8\n      jump\t// in\n    tag_7:\n      mload(0x40)\n      tag_9\n      swap2\n      swap1\n      tag_10\n      jump\t// in\n    tag_9:\n      mload(0x40)\n      dup1\n      swap2\n      sub\n      swap1\n      return\n        /* \"contracts/TaskManager/TaskContract.sol\":328:532  function createTask(string memory _title, string memory _description) public {\r... */\n    tag_4:\n      tag_11\n      0x04\n      dup1\n      calldatasize\n      sub\n      dup2\n      add\n      swap1\n      tag_12\n      swap2\n      swap1\n      tag_13\n      jump\t// in\n    tag_12:\n      tag_14\n      jump\t// in\n    tag_11:\n      stop\n        /* \"contracts/TaskManager/TaskContract.sol\":540:695  function changeStatus(uint256 _id) public {\r... */\n    tag_5:\n      tag_15\n      0x04\n      dup1\n      calldatasize\n      sub\n      dup2\n      add\n      swap1\n      tag_16\n      swap2\n      swap1\n      tag_17\n      jump\t// in\n    tag_16:\n      tag_18\n      jump\t// in\n    tag_15:\n      stop\n        /* \"contracts/TaskManager/TaskContract.sol\":281:319  mapping (uint256 => Task) public Tasks */\n    tag_6:\n      tag_19\n      0x04\n      dup1\n      calldatasize\n      sub\n      dup2\n      add\n      swap1\n      tag_20\n      swap2\n      swap1\n      tag_17\n      jump\t// in\n    tag_20:\n      tag_21\n      jump\t// in\n    tag_19:\n      mload(0x40)\n      tag_22\n      swap6\n      swap5\n      swap4\n      swap3\n      swap2\n      swap1\n      tag_23\n      jump\t// in\n    tag_22:\n      mload(0x40)\n      dup1\n      swap2\n      sub\n      swap1\n      return\n        /* \"contracts/TaskManager/TaskContract.sol\":90:120  uint256 public TaskCounter = 0 */\n    tag_8:\n      sload(0x00)\n      dup2\n      jump\t// out\n        /* \"contracts/TaskManager/TaskContract.sol\":328:532  function createTask(string memory _title, string memory _description) public {\r... */\n    tag_14:\n        /* \"contracts/TaskManager/TaskContract.sol\":437:500  Task(TaskCounter, _title, _description, false, block.timestamp) */\n      mload(0x40)\n      dup1\n      0xa0\n      add\n      0x40\n      mstore\n      dup1\n        /* \"contracts/TaskManager/TaskContract.sol\":442:453  TaskCounter */\n      sload(0x00)\n        /* \"contracts/TaskManager/TaskContract.sol\":437:500  Task(TaskCounter, _title, _description, false, block.timestamp) */\n      dup2\n      mstore\n      0x20\n      add\n        /* \"contracts/TaskManager/TaskContract.sol\":455:461  _title */\n      dup4\n        /* \"contracts/TaskManager/TaskContract.sol\":437:500  Task(TaskCounter, _title, _description, false, block.timestamp) */\n      dup2\n      mstore\n      0x20\n      add\n        /* \"contracts/TaskManager/TaskContract.sol\":463:475  _description */\n      dup3\n        /* \"contracts/TaskManager/TaskContract.sol\":437:500  Task(TaskCounter, _title, _description, false, block.timestamp) */\n      dup2\n      mstore\n      0x20\n      add\n        /* \"contracts/TaskManager/TaskContract.sol\":477:482  false */\n      0x00\n        /* \"contracts/TaskManager/TaskContract.sol\":437:500  Task(TaskCounter, _title, _description, false, block.timestamp) */\n      iszero\n      iszero\n      dup2\n      mstore\n      0x20\n      add\n        /* \"contracts/TaskManager/TaskContract.sol\":484:499  block.timestamp */\n      timestamp\n        /* \"contracts/TaskManager/TaskContract.sol\":437:500  Task(TaskCounter, _title, _description, false, block.timestamp) */\n      dup2\n      mstore\n      pop\n        /* \"contracts/TaskManager/TaskContract.sol\":416:421  Tasks */\n      0x01\n        /* \"contracts/TaskManager/TaskContract.sol\":416:434  Tasks[TaskCounter] */\n      0x00\n        /* \"contracts/TaskManager/TaskContract.sol\":422:433  TaskCounter */\n      dup1\n      sload\n        /* \"contracts/TaskManager/TaskContract.sol\":416:434  Tasks[TaskCounter] */\n      dup2\n      mstore\n      0x20\n      add\n      swap1\n      dup2\n      mstore\n      0x20\n      add\n      0x00\n      keccak256\n        /* \"contracts/TaskManager/TaskContract.sol\":416:500  Tasks[TaskCounter] = Task(TaskCounter, _title, _description, false, block.timestamp) */\n      0x00\n      dup3\n      add\n      mload\n      dup2\n      0x00\n      add\n      sstore\n      0x20\n      dup3\n      add\n      mload\n      dup2\n      0x01\n      add\n      swap1\n      dup1\n      mload\n      swap1\n      0x20\n      add\n      swap1\n      tag_25\n      swap3\n      swap2\n      swap1\n      tag_26\n      jump\t// in\n    tag_25:\n      pop\n      0x40\n      dup3\n      add\n      mload\n      dup2\n      0x02\n      add\n      swap1\n      dup1\n      mload\n      swap1\n      0x20\n      add\n      swap1\n      tag_27\n      swap3\n      swap2\n      swap1\n      tag_26\n      jump\t// in\n    tag_27:\n      pop\n      0x60\n      dup3\n      add\n      mload\n      dup2\n      0x03\n      add\n      exp(0x0100, 0x00)\n      dup2\n      sload\n      dup2\n      0xff\n      mul\n      not\n      and\n      swap1\n      dup4\n      iszero\n      iszero\n      mul\n      or\n      swap1\n      sstore\n      pop\n      0x80\n      dup3\n      add\n      mload\n      dup2\n      0x04\n      add\n      sstore\n      swap1\n      pop\n      pop\n        /* \"contracts/TaskManager/TaskContract.sol\":511:522  TaskCounter */\n      0x00\n      dup1\n        /* \"contracts/TaskManager/TaskContract.sol\":511:524  TaskCounter++ */\n      dup2\n      sload\n      dup1\n      swap3\n      swap2\n      swap1\n      tag_28\n      swap1\n      tag_29\n      jump\t// in\n    tag_28:\n      swap2\n      swap1\n      pop\n      sstore\n      pop\n        /* \"contracts/TaskManager/TaskContract.sol\":328:532  function createTask(string memory _title, string memory _description) public {\r... */\n      pop\n      pop\n      jump\t// out\n        /* \"contracts/TaskManager/TaskContract.sol\":540:695  function changeStatus(uint256 _id) public {\r... */\n    tag_18:\n        /* \"contracts/TaskManager/TaskContract.sol\":593:610  Task memory _task */\n      0x00\n        /* \"contracts/TaskManager/TaskContract.sol\":613:618  Tasks */\n      0x01\n        /* \"contracts/TaskManager/TaskContract.sol\":613:623  Tasks[_id] */\n      0x00\n        /* \"contracts/TaskManager/TaskContract.sol\":619:622  _id */\n      dup4\n        /* \"contracts/TaskManager/TaskContract.sol\":613:623  Tasks[_id] */\n      dup2\n      mstore\n      0x20\n      add\n      swap1\n      dup2\n      mstore\n      0x20\n      add\n      0x00\n      keccak256\n        /* \"contracts/TaskManager/TaskContract.sol\":593:623  Task memory _task = Tasks[_id] */\n      mload(0x40)\n      dup1\n      0xa0\n      add\n      0x40\n      mstore\n      swap1\n      dup2\n      0x00\n      dup3\n      add\n      sload\n      dup2\n      mstore\n      0x20\n      add\n      0x01\n      dup3\n      add\n      dup1\n      sload\n      tag_31\n      swap1\n      tag_32\n      jump\t// in\n    tag_31:\n      dup1\n      0x1f\n      add\n      0x20\n      dup1\n      swap2\n      div\n      mul\n      0x20\n      add\n      mload(0x40)\n      swap1\n      dup2\n      add\n      0x40\n      mstore\n      dup1\n      swap3\n      swap2\n      swap1\n      dup2\n      dup2\n      mstore\n      0x20\n      add\n      dup3\n      dup1\n      sload\n      tag_33\n      swap1\n      tag_32\n      jump\t// in\n    tag_33:\n      dup1\n      iszero\n      tag_34\n      jumpi\n      dup1\n      0x1f\n      lt\n      tag_35\n      jumpi\n      0x0100\n      dup1\n      dup4\n      sload\n      div\n      mul\n      dup4\n      mstore\n      swap2\n      0x20\n      add\n      swap2\n      jump(tag_34)\n    tag_35:\n      dup3\n      add\n      swap2\n      swap1\n      0x00\n      mstore\n      keccak256(0x00, 0x20)\n      swap1\n    tag_36:\n      dup2\n      sload\n      dup2\n      mstore\n      swap1\n      0x01\n      add\n      swap1\n      0x20\n      add\n      dup1\n      dup4\n      gt\n      tag_36\n      jumpi\n      dup3\n      swap1\n      sub\n      0x1f\n      and\n      dup3\n      add\n      swap2\n    tag_34:\n      pop\n      pop\n      pop\n      pop\n      pop\n      dup2\n      mstore\n      0x20\n      add\n      0x02\n      dup3\n      add\n      dup1\n      sload\n      tag_37\n      swap1\n      tag_32\n      jump\t// in\n    tag_37:\n      dup1\n      0x1f\n      add\n      0x20\n      dup1\n      swap2\n      div\n      mul\n      0x20\n      add\n      mload(0x40)\n      swap1\n      dup2\n      add\n      0x40\n      mstore\n      dup1\n      swap3\n      swap2\n      swap1\n      dup2\n      dup2\n      mstore\n      0x20\n      add\n      dup3\n      dup1\n      sload\n      tag_38\n      swap1\n      tag_32\n      jump\t// in\n    tag_38:\n      dup1\n      iszero\n      tag_39\n      jumpi\n      dup1\n      0x1f\n      lt\n      tag_40\n      jumpi\n      0x0100\n      dup1\n      dup4\n      sload\n      div\n      mul\n      dup4\n      mstore\n      swap2\n      0x20\n      add\n      swap2\n      jump(tag_39)\n    tag_40:\n      dup3\n      add\n      swap2\n      swap1\n      0x00\n      mstore\n      keccak256(0x00, 0x20)\n      swap1\n    tag_41:\n      dup2\n      sload\n      dup2\n      mstore\n      swap1\n      0x01\n      add\n      swap1\n      0x20\n      add\n      dup1\n      dup4\n      gt\n      tag_41\n      jumpi\n      dup3\n      swap1\n      sub\n      0x1f\n      and\n      dup3\n      add\n      swap2\n    tag_39:\n      pop\n      pop\n      pop\n      pop\n      pop\n      dup2\n      mstore\n      0x20\n      add\n      0x03\n      dup3\n      add\n      0x00\n      swap1\n      sload\n      swap1\n      0x0100\n      exp\n      swap1\n      div\n      0xff\n      and\n      iszero\n      iszero\n      iszero\n      iszero\n      dup2\n      mstore\n      0x20\n      add\n      0x04\n      dup3\n      add\n      sload\n      dup2\n      mstore\n      pop\n      pop\n      swap1\n      pop\n        /* \"contracts/TaskManager/TaskContract.sol\":648:653  _task */\n      dup1\n        /* \"contracts/TaskManager/TaskContract.sol\":648:658  _task.Done */\n      0x60\n      add\n      mload\n        /* \"contracts/TaskManager/TaskContract.sol\":647:658  !_task.Done */\n      iszero\n        /* \"contracts/TaskManager/TaskContract.sol\":634:639  _task */\n      dup2\n        /* \"contracts/TaskManager/TaskContract.sol\":634:644  _task.Done */\n      0x60\n      add\n        /* \"contracts/TaskManager/TaskContract.sol\":634:658  _task.Done = !_task.Done */\n      swap1\n      iszero\n      iszero\n      swap1\n      dup2\n      iszero\n      iszero\n      dup2\n      mstore\n      pop\n      pop\n        /* \"contracts/TaskManager/TaskContract.sol\":682:687  _task */\n      dup1\n        /* \"contracts/TaskManager/TaskContract.sol\":669:674  Tasks */\n      0x01\n        /* \"contracts/TaskManager/TaskContract.sol\":669:679  Tasks[_id] */\n      0x00\n        /* \"contracts/TaskManager/TaskContract.sol\":675:678  _id */\n      dup5\n        /* \"contracts/TaskManager/TaskContract.sol\":669:679  Tasks[_id] */\n      dup2\n      mstore\n      0x20\n      add\n      swap1\n      dup2\n      mstore\n      0x20\n      add\n      0x00\n      keccak256\n        /* \"contracts/TaskManager/TaskContract.sol\":669:687  Tasks[_id] = _task */\n      0x00\n      dup3\n      add\n      mload\n      dup2\n      0x00\n      add\n      sstore\n      0x20\n      dup3\n      add\n      mload\n      dup2\n      0x01\n      add\n      swap1\n      dup1\n      mload\n      swap1\n      0x20\n      add\n      swap1\n      tag_42\n      swap3\n      swap2\n      swap1\n      tag_26\n      jump\t// in\n    tag_42:\n      pop\n      0x40\n      dup3\n      add\n      mload\n      dup2\n      0x02\n      add\n      swap1\n      dup1\n      mload\n      swap1\n      0x20\n      add\n      swap1\n      tag_43\n      swap3\n      swap2\n      swap1\n      tag_26\n      jump\t// in\n    tag_43:\n      pop\n      0x60\n      dup3\n      add\n      mload\n      dup2\n      0x03\n      add\n      exp(0x0100, 0x00)\n      dup2\n      sload\n      dup2\n      0xff\n      mul\n      not\n      and\n      swap1\n      dup4\n      iszero\n      iszero\n      mul\n      or\n      swap1\n      sstore\n      pop\n      0x80\n      dup3\n      add\n      mload\n      dup2\n      0x04\n      add\n      sstore\n      swap1\n      pop\n      pop\n        /* \"contracts/TaskManager/TaskContract.sol\":540:695  function changeStatus(uint256 _id) public {\r... */\n      pop\n      pop\n      jump\t// out\n        /* \"contracts/TaskManager/TaskContract.sol\":281:319  mapping (uint256 => Task) public Tasks */\n    tag_21:\n      mstore(0x20, 0x01)\n      dup1\n      0x00\n      mstore\n      keccak256(0x00, 0x40)\n      0x00\n      swap2\n      pop\n      swap1\n      pop\n      dup1\n      0x00\n      add\n      sload\n      swap1\n      dup1\n      0x01\n      add\n      dup1\n      sload\n      tag_44\n      swap1\n      tag_32\n      jump\t// in\n    tag_44:\n      dup1\n      0x1f\n      add\n      0x20\n      dup1\n      swap2\n      div\n      mul\n      0x20\n      add\n      mload(0x40)\n      swap1\n      dup2\n      add\n      0x40\n      mstore\n      dup1\n      swap3\n      swap2\n      swap1\n      dup2\n      dup2\n      mstore\n      0x20\n      add\n      dup3\n      dup1\n      sload\n      tag_45\n      swap1\n      tag_32\n      jump\t// in\n    tag_45:\n      dup1\n      iszero\n      tag_46\n      jumpi\n      dup1\n      0x1f\n      lt\n      tag_47\n      jumpi\n      0x0100\n      dup1\n      dup4\n      sload\n      div\n      mul\n      dup4\n      mstore\n      swap2\n      0x20\n      add\n      swap2\n      jump(tag_46)\n    tag_47:\n      dup3\n      add\n      swap2\n      swap1\n      0x00\n      mstore\n      keccak256(0x00, 0x20)\n      swap1\n    tag_48:\n      dup2\n      sload\n      dup2\n      mstore\n      swap1\n      0x01\n      add\n      swap1\n      0x20\n      add\n      dup1\n      dup4\n      gt\n      tag_48\n      jumpi\n      dup3\n      swap1\n      sub\n      0x1f\n      and\n      dup3\n      add\n      swap2\n    tag_46:\n      pop\n      pop\n      pop\n      pop\n      pop\n      swap1\n      dup1\n      0x02\n      add\n      dup1\n      sload\n      tag_49\n      swap1\n      tag_32\n      jump\t// in\n    tag_49:\n      dup1\n      0x1f\n      add\n      0x20\n      dup1\n      swap2\n      div\n      mul\n      0x20\n      add\n      mload(0x40)\n      swap1\n      dup2\n      add\n      0x40\n      mstore\n      dup1\n      swap3\n      swap2\n      swap1\n      dup2\n      dup2\n      mstore\n      0x20\n      add\n      dup3\n      dup1\n      sload\n      tag_50\n      swap1\n      tag_32\n      jump\t// in\n    tag_50:\n      dup1\n      iszero\n      tag_51\n      jumpi\n      dup1\n      0x1f\n      lt\n      tag_52\n      jumpi\n      0x0100\n      dup1\n      dup4\n      sload\n      div\n      mul\n      dup4\n      mstore\n      swap2\n      0x20\n      add\n      swap2\n      jump(tag_51)\n    tag_52:\n      dup3\n      add\n      swap2\n      swap1\n      0x00\n      mstore\n      keccak256(0x00, 0x20)\n      swap1\n    tag_53:\n      dup2\n      sload\n      dup2\n      mstore\n      swap1\n      0x01\n      add\n      swap1\n      0x20\n      add\n      dup1\n      dup4\n      gt\n      tag_53\n      jumpi\n      dup3\n      swap1\n      sub\n      0x1f\n      and\n      dup3\n      add\n      swap2\n    tag_51:\n      pop\n      pop\n      pop\n      pop\n      pop\n      swap1\n      dup1\n      0x03\n      add\n      0x00\n      swap1\n      sload\n      swap1\n      0x0100\n      exp\n      swap1\n      div\n      0xff\n      and\n      swap1\n      dup1\n      0x04\n      add\n      sload\n      swap1\n      pop\n      dup6\n      jump\t// out\n    tag_26:\n      dup3\n      dup1\n      sload\n      tag_54\n      swap1\n      tag_32\n      jump\t// in\n    tag_54:\n      swap1\n      0x00\n      mstore\n      keccak256(0x00, 0x20)\n      swap1\n      0x1f\n      add\n      0x20\n      swap1\n      div\n      dup2\n      add\n      swap3\n      dup3\n      tag_56\n      jumpi\n      0x00\n      dup6\n      sstore\n      jump(tag_55)\n    tag_56:\n      dup3\n      0x1f\n      lt\n      tag_57\n      jumpi\n      dup1\n      mload\n      not(0xff)\n      and\n      dup4\n      dup1\n      add\n      or\n      dup6\n      sstore\n      jump(tag_55)\n    tag_57:\n      dup3\n      dup1\n      add\n      0x01\n      add\n      dup6\n      sstore\n      dup3\n      iszero\n      tag_55\n      jumpi\n      swap2\n      dup3\n      add\n    tag_58:\n      dup3\n      dup2\n      gt\n      iszero\n      tag_59\n      jumpi\n      dup3\n      mload\n      dup3\n      sstore\n      swap2\n      0x20\n      add\n      swap2\n      swap1\n      0x01\n      add\n      swap1\n      jump(tag_58)\n    tag_59:\n    tag_55:\n      pop\n      swap1\n      pop\n      tag_60\n      swap2\n      swap1\n      tag_61\n      jump\t// in\n    tag_60:\n      pop\n      swap1\n      jump\t// out\n    tag_61:\n    tag_62:\n      dup1\n      dup3\n      gt\n      iszero\n      tag_63\n      jumpi\n      0x00\n      dup2\n      0x00\n      swap1\n      sstore\n      pop\n      0x01\n      add\n      jump(tag_62)\n    tag_63:\n      pop\n      swap1\n      jump\t// out\n        /* \"#utility.yul\":7:352   */\n    tag_65:\n        /* \"#utility.yul\":85:90   */\n      0x00\n        /* \"#utility.yul\":110:176   */\n      tag_67\n        /* \"#utility.yul\":126:175   */\n      tag_68\n        /* \"#utility.yul\":168:174   */\n      dup5\n        /* \"#utility.yul\":126:175   */\n      tag_69\n      jump\t// in\n    tag_68:\n        /* \"#utility.yul\":110:176   */\n      tag_70\n      jump\t// in\n    tag_67:\n        /* \"#utility.yul\":101:176   */\n      swap1\n      pop\n        /* \"#utility.yul\":199:205   */\n      dup3\n        /* \"#utility.yul\":192:197   */\n      dup2\n        /* \"#utility.yul\":185:206   */\n      mstore\n        /* \"#utility.yul\":237:241   */\n      0x20\n        /* \"#utility.yul\":230:235   */\n      dup2\n        /* \"#utility.yul\":226:242   */\n      add\n        /* \"#utility.yul\":275:278   */\n      dup5\n        /* \"#utility.yul\":266:272   */\n      dup5\n        /* \"#utility.yul\":261:264   */\n      dup5\n        /* \"#utility.yul\":257:273   */\n      add\n        /* \"#utility.yul\":254:279   */\n      gt\n        /* \"#utility.yul\":251:253   */\n      iszero\n      tag_71\n      jumpi\n        /* \"#utility.yul\":292:293   */\n      0x00\n        /* \"#utility.yul\":289:290   */\n      dup1\n        /* \"#utility.yul\":282:294   */\n      revert\n        /* \"#utility.yul\":251:253   */\n    tag_71:\n        /* \"#utility.yul\":305:346   */\n      tag_72\n        /* \"#utility.yul\":339:345   */\n      dup5\n        /* \"#utility.yul\":334:337   */\n      dup3\n        /* \"#utility.yul\":329:332   */\n      dup6\n        /* \"#utility.yul\":305:346   */\n      tag_73\n      jump\t// in\n    tag_72:\n        /* \"#utility.yul\":91:352   */\n      pop\n      swap4\n      swap3\n      pop\n      pop\n      pop\n      jump\t// out\n        /* \"#utility.yul\":372:645   */\n    tag_74:\n        /* \"#utility.yul\":428:433   */\n      0x00\n        /* \"#utility.yul\":477:480   */\n      dup3\n        /* \"#utility.yul\":470:474   */\n      0x1f\n        /* \"#utility.yul\":462:468   */\n      dup4\n        /* \"#utility.yul\":458:475   */\n      add\n        /* \"#utility.yul\":454:481   */\n      slt\n        /* \"#utility.yul\":444:446   */\n      tag_76\n      jumpi\n        /* \"#utility.yul\":495:496   */\n      0x00\n        /* \"#utility.yul\":492:493   */\n      dup1\n        /* \"#utility.yul\":485:497   */\n      revert\n        /* \"#utility.yul\":444:446   */\n    tag_76:\n        /* \"#utility.yul\":535:541   */\n      dup2\n        /* \"#utility.yul\":522:542   */\n      calldataload\n        /* \"#utility.yul\":560:639   */\n      tag_77\n        /* \"#utility.yul\":635:638   */\n      dup5\n        /* \"#utility.yul\":627:633   */\n      dup3\n        /* \"#utility.yul\":620:624   */\n      0x20\n        /* \"#utility.yul\":612:618   */\n      dup7\n        /* \"#utility.yul\":608:625   */\n      add\n        /* \"#utility.yul\":560:639   */\n      tag_65\n      jump\t// in\n    tag_77:\n        /* \"#utility.yul\":551:639   */\n      swap2\n      pop\n        /* \"#utility.yul\":434:645   */\n      pop\n      swap3\n      swap2\n      pop\n      pop\n      jump\t// out\n        /* \"#utility.yul\":651:790   */\n    tag_78:\n        /* \"#utility.yul\":697:702   */\n      0x00\n        /* \"#utility.yul\":735:741   */\n      dup2\n        /* \"#utility.yul\":722:742   */\n      calldataload\n        /* \"#utility.yul\":713:742   */\n      swap1\n      pop\n        /* \"#utility.yul\":751:784   */\n      tag_80\n        /* \"#utility.yul\":778:783   */\n      dup2\n        /* \"#utility.yul\":751:784   */\n      tag_81\n      jump\t// in\n    tag_80:\n        /* \"#utility.yul\":703:790   */\n      swap3\n      swap2\n      pop\n      pop\n      jump\t// out\n        /* \"#utility.yul\":796:1429   */\n    tag_13:\n        /* \"#utility.yul\":884:890   */\n      0x00\n        /* \"#utility.yul\":892:898   */\n      dup1\n        /* \"#utility.yul\":941:943   */\n      0x40\n        /* \"#utility.yul\":929:938   */\n      dup4\n        /* \"#utility.yul\":920:927   */\n      dup6\n        /* \"#utility.yul\":916:939   */\n      sub\n        /* \"#utility.yul\":912:944   */\n      slt\n        /* \"#utility.yul\":909:911   */\n      iszero\n      tag_83\n      jumpi\n        /* \"#utility.yul\":957:958   */\n      0x00\n        /* \"#utility.yul\":954:955   */\n      dup1\n        /* \"#utility.yul\":947:959   */\n      revert\n        /* \"#utility.yul\":909:911   */\n    tag_83:\n        /* \"#utility.yul\":1028:1029   */\n      0x00\n        /* \"#utility.yul\":1017:1026   */\n      dup4\n        /* \"#utility.yul\":1013:1030   */\n      add\n        /* \"#utility.yul\":1000:1031   */\n      calldataload\n        /* \"#utility.yul\":1058:1076   */\n      0xffffffffffffffff\n        /* \"#utility.yul\":1050:1056   */\n      dup2\n        /* \"#utility.yul\":1047:1077   */\n      gt\n        /* \"#utility.yul\":1044:1046   */\n      iszero\n      tag_84\n      jumpi\n        /* \"#utility.yul\":1090:1091   */\n      0x00\n        /* \"#utility.yul\":1087:1088   */\n      dup1\n        /* \"#utility.yul\":1080:1092   */\n      revert\n        /* \"#utility.yul\":1044:1046   */\n    tag_84:\n        /* \"#utility.yul\":1118:1181   */\n      tag_85\n        /* \"#utility.yul\":1173:1180   */\n      dup6\n        /* \"#utility.yul\":1164:1170   */\n      dup3\n        /* \"#utility.yul\":1153:1162   */\n      dup7\n        /* \"#utility.yul\":1149:1171   */\n      add\n        /* \"#utility.yul\":1118:1181   */\n      tag_74\n      jump\t// in\n    tag_85:\n        /* \"#utility.yul\":1108:1181   */\n      swap3\n      pop\n        /* \"#utility.yul\":971:1191   */\n      pop\n        /* \"#utility.yul\":1258:1260   */\n      0x20\n        /* \"#utility.yul\":1247:1256   */\n      dup4\n        /* \"#utility.yul\":1243:1261   */\n      add\n        /* \"#utility.yul\":1230:1262   */\n      calldataload\n        /* \"#utility.yul\":1289:1307   */\n      0xffffffffffffffff\n        /* \"#utility.yul\":1281:1287   */\n      dup2\n        /* \"#utility.yul\":1278:1308   */\n      gt\n        /* \"#utility.yul\":1275:1277   */\n      iszero\n      tag_86\n      jumpi\n        /* \"#utility.yul\":1321:1322   */\n      0x00\n        /* \"#utility.yul\":1318:1319   */\n      dup1\n        /* \"#utility.yul\":1311:1323   */\n      revert\n        /* \"#utility.yul\":1275:1277   */\n    tag_86:\n        /* \"#utility.yul\":1349:1412   */\n      tag_87\n        /* \"#utility.yul\":1404:1411   */\n      dup6\n        /* \"#utility.yul\":1395:1401   */\n      dup3\n        /* \"#utility.yul\":1384:1393   */\n      dup7\n        /* \"#utility.yul\":1380:1402   */\n      add\n        /* \"#utility.yul\":1349:1412   */\n      tag_74\n      jump\t// in\n    tag_87:\n        /* \"#utility.yul\":1339:1412   */\n      swap2\n      pop\n        /* \"#utility.yul\":1201:1422   */\n      pop\n        /* \"#utility.yul\":899:1429   */\n      swap3\n      pop\n      swap3\n      swap1\n      pop\n      jump\t// out\n        /* \"#utility.yul\":1435:1697   */\n    tag_17:\n        /* \"#utility.yul\":1494:1500   */\n      0x00\n        /* \"#utility.yul\":1543:1545   */\n      0x20\n        /* \"#utility.yul\":1531:1540   */\n      dup3\n        /* \"#utility.yul\":1522:1529   */\n      dup5\n        /* \"#utility.yul\":1518:1541   */\n      sub\n        /* \"#utility.yul\":1514:1546   */\n      slt\n        /* \"#utility.yul\":1511:1513   */\n      iszero\n      tag_89\n      jumpi\n        /* \"#utility.yul\":1559:1560   */\n      0x00\n        /* \"#utility.yul\":1556:1557   */\n      dup1\n        /* \"#utility.yul\":1549:1561   */\n      revert\n        /* \"#utility.yul\":1511:1513   */\n    tag_89:\n        /* \"#utility.yul\":1602:1603   */\n      0x00\n        /* \"#utility.yul\":1627:1680   */\n      tag_90\n        /* \"#utility.yul\":1672:1679   */\n      dup5\n        /* \"#utility.yul\":1663:1669   */\n      dup3\n        /* \"#utility.yul\":1652:1661   */\n      dup6\n        /* \"#utility.yul\":1648:1670   */\n      add\n        /* \"#utility.yul\":1627:1680   */\n      tag_78\n      jump\t// in\n    tag_90:\n        /* \"#utility.yul\":1617:1680   */\n      swap2\n      pop\n        /* \"#utility.yul\":1573:1690   */\n      pop\n        /* \"#utility.yul\":1501:1697   */\n      swap3\n      swap2\n      pop\n      pop\n      jump\t// out\n        /* \"#utility.yul\":1703:1812   */\n    tag_91:\n        /* \"#utility.yul\":1784:1805   */\n      tag_93\n        /* \"#utility.yul\":1799:1804   */\n      dup2\n        /* \"#utility.yul\":1784:1805   */\n      tag_94\n      jump\t// in\n    tag_93:\n        /* \"#utility.yul\":1779:1782   */\n      dup3\n        /* \"#utility.yul\":1772:1806   */\n      mstore\n        /* \"#utility.yul\":1762:1812   */\n      pop\n      pop\n      jump\t// out\n        /* \"#utility.yul\":1818:2182   */\n    tag_95:\n        /* \"#utility.yul\":1906:1909   */\n      0x00\n        /* \"#utility.yul\":1934:1973   */\n      tag_97\n        /* \"#utility.yul\":1967:1972   */\n      dup3\n        /* \"#utility.yul\":1934:1973   */\n      tag_98\n      jump\t// in\n    tag_97:\n        /* \"#utility.yul\":1989:2060   */\n      tag_99\n        /* \"#utility.yul\":2053:2059   */\n      dup2\n        /* \"#utility.yul\":2048:2051   */\n      dup6\n        /* \"#utility.yul\":1989:2060   */\n      tag_100\n      jump\t// in\n    tag_99:\n        /* \"#utility.yul\":1982:2060   */\n      swap4\n      pop\n        /* \"#utility.yul\":2069:2121   */\n      tag_101\n        /* \"#utility.yul\":2114:2120   */\n      dup2\n        /* \"#utility.yul\":2109:2112   */\n      dup6\n        /* \"#utility.yul\":2102:2106   */\n      0x20\n        /* \"#utility.yul\":2095:2100   */\n      dup7\n        /* \"#utility.yul\":2091:2107   */\n      add\n        /* \"#utility.yul\":2069:2121   */\n      tag_102\n      jump\t// in\n    tag_101:\n        /* \"#utility.yul\":2146:2175   */\n      tag_103\n        /* \"#utility.yul\":2168:2174   */\n      dup2\n        /* \"#utility.yul\":2146:2175   */\n      tag_104\n      jump\t// in\n    tag_103:\n        /* \"#utility.yul\":2141:2144   */\n      dup5\n        /* \"#utility.yul\":2137:2176   */\n      add\n        /* \"#utility.yul\":2130:2176   */\n      swap2\n      pop\n        /* \"#utility.yul\":1910:2182   */\n      pop\n      swap3\n      swap2\n      pop\n      pop\n      jump\t// out\n        /* \"#utility.yul\":2188:2306   */\n    tag_105:\n        /* \"#utility.yul\":2275:2299   */\n      tag_107\n        /* \"#utility.yul\":2293:2298   */\n      dup2\n        /* \"#utility.yul\":2275:2299   */\n      tag_108\n      jump\t// in\n    tag_107:\n        /* \"#utility.yul\":2270:2273   */\n      dup3\n        /* \"#utility.yul\":2263:2300   */\n      mstore\n        /* \"#utility.yul\":2253:2306   */\n      pop\n      pop\n      jump\t// out\n        /* \"#utility.yul\":2312:2534   */\n    tag_10:\n        /* \"#utility.yul\":2405:2409   */\n      0x00\n        /* \"#utility.yul\":2443:2445   */\n      0x20\n        /* \"#utility.yul\":2432:2441   */\n      dup3\n        /* \"#utility.yul\":2428:2446   */\n      add\n        /* \"#utility.yul\":2420:2446   */\n      swap1\n      pop\n        /* \"#utility.yul\":2456:2527   */\n      tag_110\n        /* \"#utility.yul\":2524:2525   */\n      0x00\n        /* \"#utility.yul\":2513:2522   */\n      dup4\n        /* \"#utility.yul\":2509:2526   */\n      add\n        /* \"#utility.yul\":2500:2506   */\n      dup5\n        /* \"#utility.yul\":2456:2527   */\n      tag_105\n      jump\t// in\n    tag_110:\n        /* \"#utility.yul\":2410:2534   */\n      swap3\n      swap2\n      pop\n      pop\n      jump\t// out\n        /* \"#utility.yul\":2540:3374   */\n    tag_23:\n        /* \"#utility.yul\":2779:2783   */\n      0x00\n        /* \"#utility.yul\":2817:2820   */\n      0xa0\n        /* \"#utility.yul\":2806:2815   */\n      dup3\n        /* \"#utility.yul\":2802:2821   */\n      add\n        /* \"#utility.yul\":2794:2821   */\n      swap1\n      pop\n        /* \"#utility.yul\":2831:2902   */\n      tag_112\n        /* \"#utility.yul\":2899:2900   */\n      0x00\n        /* \"#utility.yul\":2888:2897   */\n      dup4\n        /* \"#utility.yul\":2884:2901   */\n      add\n        /* \"#utility.yul\":2875:2881   */\n      dup9\n        /* \"#utility.yul\":2831:2902   */\n      tag_105\n      jump\t// in\n    tag_112:\n        /* \"#utility.yul\":2949:2958   */\n      dup2\n        /* \"#utility.yul\":2943:2947   */\n      dup2\n        /* \"#utility.yul\":2939:2959   */\n      sub\n        /* \"#utility.yul\":2934:2936   */\n      0x20\n        /* \"#utility.yul\":2923:2932   */\n      dup4\n        /* \"#utility.yul\":2919:2937   */\n      add\n        /* \"#utility.yul\":2912:2960   */\n      mstore\n        /* \"#utility.yul\":2977:3055   */\n      tag_113\n        /* \"#utility.yul\":3050:3054   */\n      dup2\n        /* \"#utility.yul\":3041:3047   */\n      dup8\n        /* \"#utility.yul\":2977:3055   */\n      tag_95\n      jump\t// in\n    tag_113:\n        /* \"#utility.yul\":2969:3055   */\n      swap1\n      pop\n        /* \"#utility.yul\":3102:3111   */\n      dup2\n        /* \"#utility.yul\":3096:3100   */\n      dup2\n        /* \"#utility.yul\":3092:3112   */\n      sub\n        /* \"#utility.yul\":3087:3089   */\n      0x40\n        /* \"#utility.yul\":3076:3085   */\n      dup4\n        /* \"#utility.yul\":3072:3090   */\n      add\n        /* \"#utility.yul\":3065:3113   */\n      mstore\n        /* \"#utility.yul\":3130:3208   */\n      tag_114\n        /* \"#utility.yul\":3203:3207   */\n      dup2\n        /* \"#utility.yul\":3194:3200   */\n      dup7\n        /* \"#utility.yul\":3130:3208   */\n      tag_95\n      jump\t// in\n    tag_114:\n        /* \"#utility.yul\":3122:3208   */\n      swap1\n      pop\n        /* \"#utility.yul\":3218:3284   */\n      tag_115\n        /* \"#utility.yul\":3280:3282   */\n      0x60\n        /* \"#utility.yul\":3269:3278   */\n      dup4\n        /* \"#utility.yul\":3265:3283   */\n      add\n        /* \"#utility.yul\":3256:3262   */\n      dup6\n        /* \"#utility.yul\":3218:3284   */\n      tag_91\n      jump\t// in\n    tag_115:\n        /* \"#utility.yul\":3294:3367   */\n      tag_116\n        /* \"#utility.yul\":3362:3365   */\n      0x80\n        /* \"#utility.yul\":3351:3360   */\n      dup4\n        /* \"#utility.yul\":3347:3366   */\n      add\n        /* \"#utility.yul\":3338:3344   */\n      dup5\n        /* \"#utility.yul\":3294:3367   */\n      tag_105\n      jump\t// in\n    tag_116:\n        /* \"#utility.yul\":2784:3374   */\n      swap7\n      swap6\n      pop\n      pop\n      pop\n      pop\n      pop\n      pop\n      jump\t// out\n        /* \"#utility.yul\":3380:3509   */\n    tag_70:\n        /* \"#utility.yul\":3414:3420   */\n      0x00\n        /* \"#utility.yul\":3441:3461   */\n      tag_118\n      tag_119\n      jump\t// in\n    tag_118:\n        /* \"#utility.yul\":3431:3461   */\n      swap1\n      pop\n        /* \"#utility.yul\":3470:3503   */\n      tag_120\n        /* \"#utility.yul\":3498:3502   */\n      dup3\n        /* \"#utility.yul\":3490:3496   */\n      dup3\n        /* \"#utility.yul\":3470:3503   */\n      tag_121\n      jump\t// in\n    tag_120:\n        /* \"#utility.yul\":3421:3509   */\n      swap2\n      swap1\n      pop\n      jump\t// out\n        /* \"#utility.yul\":3515:3590   */\n    tag_119:\n        /* \"#utility.yul\":3548:3554   */\n      0x00\n        /* \"#utility.yul\":3581:3583   */\n      0x40\n        /* \"#utility.yul\":3575:3584   */\n      mload\n        /* \"#utility.yul\":3565:3584   */\n      swap1\n      pop\n        /* \"#utility.yul\":3555:3590   */\n      swap1\n      jump\t// out\n        /* \"#utility.yul\":3596:3904   */\n    tag_69:\n        /* \"#utility.yul\":3658:3662   */\n      0x00\n        /* \"#utility.yul\":3748:3766   */\n      0xffffffffffffffff\n        /* \"#utility.yul\":3740:3746   */\n      dup3\n        /* \"#utility.yul\":3737:3767   */\n      gt\n        /* \"#utility.yul\":3734:3736   */\n      iszero\n      tag_124\n      jumpi\n        /* \"#utility.yul\":3770:3788   */\n      tag_125\n      tag_126\n      jump\t// in\n    tag_125:\n        /* \"#utility.yul\":3734:3736   */\n    tag_124:\n        /* \"#utility.yul\":3808:3837   */\n      tag_127\n        /* \"#utility.yul\":3830:3836   */\n      dup3\n        /* \"#utility.yul\":3808:3837   */\n      tag_104\n      jump\t// in\n    tag_127:\n        /* \"#utility.yul\":3800:3837   */\n      swap1\n      pop\n        /* \"#utility.yul\":3892:3896   */\n      0x20\n        /* \"#utility.yul\":3886:3890   */\n      dup2\n        /* \"#utility.yul\":3882:3897   */\n      add\n        /* \"#utility.yul\":3874:3897   */\n      swap1\n      pop\n        /* \"#utility.yul\":3663:3904   */\n      swap2\n      swap1\n      pop\n      jump\t// out\n        /* \"#utility.yul\":3910:4009   */\n    tag_98:\n        /* \"#utility.yul\":3962:3968   */\n      0x00\n        /* \"#utility.yul\":3996:4001   */\n      dup2\n        /* \"#utility.yul\":3990:4002   */\n      mload\n        /* \"#utility.yul\":3980:4002   */\n      swap1\n      pop\n        /* \"#utility.yul\":3969:4009   */\n      swap2\n      swap1\n      pop\n      jump\t// out\n        /* \"#utility.yul\":4015:4184   */\n    tag_100:\n        /* \"#utility.yul\":4099:4110   */\n      0x00\n        /* \"#utility.yul\":4133:4139   */\n      dup3\n        /* \"#utility.yul\":4128:4131   */\n      dup3\n        /* \"#utility.yul\":4121:4140   */\n      mstore\n        /* \"#utility.yul\":4173:4177   */\n      0x20\n        /* \"#utility.yul\":4168:4171   */\n      dup3\n        /* \"#utility.yul\":4164:4178   */\n      add\n        /* \"#utility.yul\":4149:4178   */\n      swap1\n      pop\n        /* \"#utility.yul\":4111:4184   */\n      swap3\n      swap2\n      pop\n      pop\n      jump\t// out\n        /* \"#utility.yul\":4190:4280   */\n    tag_94:\n        /* \"#utility.yul\":4224:4231   */\n      0x00\n        /* \"#utility.yul\":4267:4272   */\n      dup2\n        /* \"#utility.yul\":4260:4273   */\n      iszero\n        /* \"#utility.yul\":4253:4274   */\n      iszero\n        /* \"#utility.yul\":4242:4274   */\n      swap1\n      pop\n        /* \"#utility.yul\":4232:4280   */\n      swap2\n      swap1\n      pop\n      jump\t// out\n        /* \"#utility.yul\":4286:4363   */\n    tag_108:\n        /* \"#utility.yul\":4323:4330   */\n      0x00\n        /* \"#utility.yul\":4352:4357   */\n      dup2\n        /* \"#utility.yul\":4341:4357   */\n      swap1\n      pop\n        /* \"#utility.yul\":4331:4363   */\n      swap2\n      swap1\n      pop\n      jump\t// out\n        /* \"#utility.yul\":4369:4523   */\n    tag_73:\n        /* \"#utility.yul\":4453:4459   */\n      dup3\n        /* \"#utility.yul\":4448:4451   */\n      dup2\n        /* \"#utility.yul\":4443:4446   */\n      dup4\n        /* \"#utility.yul\":4430:4460   */\n      calldatacopy\n        /* \"#utility.yul\":4515:4516   */\n      0x00\n        /* \"#utility.yul\":4506:4512   */\n      dup4\n        /* \"#utility.yul\":4501:4504   */\n      dup4\n        /* \"#utility.yul\":4497:4513   */\n      add\n        /* \"#utility.yul\":4490:4517   */\n      mstore\n        /* \"#utility.yul\":4420:4523   */\n      pop\n      pop\n      pop\n      jump\t// out\n        /* \"#utility.yul\":4529:4836   */\n    tag_102:\n        /* \"#utility.yul\":4597:4598   */\n      0x00\n        /* \"#utility.yul\":4607:4720   */\n    tag_134:\n        /* \"#utility.yul\":4621:4627   */\n      dup4\n        /* \"#utility.yul\":4618:4619   */\n      dup2\n        /* \"#utility.yul\":4615:4628   */\n      lt\n        /* \"#utility.yul\":4607:4720   */\n      iszero\n      tag_136\n      jumpi\n        /* \"#utility.yul\":4706:4707   */\n      dup1\n        /* \"#utility.yul\":4701:4704   */\n      dup3\n        /* \"#utility.yul\":4697:4708   */\n      add\n        /* \"#utility.yul\":4691:4709   */\n      mload\n        /* \"#utility.yul\":4687:4688   */\n      dup2\n        /* \"#utility.yul\":4682:4685   */\n      dup5\n        /* \"#utility.yul\":4678:4689   */\n      add\n        /* \"#utility.yul\":4671:4710   */\n      mstore\n        /* \"#utility.yul\":4643:4645   */\n      0x20\n        /* \"#utility.yul\":4640:4641   */\n      dup2\n        /* \"#utility.yul\":4636:4646   */\n      add\n        /* \"#utility.yul\":4631:4646   */\n      swap1\n      pop\n        /* \"#utility.yul\":4607:4720   */\n      jump(tag_134)\n    tag_136:\n        /* \"#utility.yul\":4738:4744   */\n      dup4\n        /* \"#utility.yul\":4735:4736   */\n      dup2\n        /* \"#utility.yul\":4732:4745   */\n      gt\n        /* \"#utility.yul\":4729:4731   */\n      iszero\n      tag_137\n      jumpi\n        /* \"#utility.yul\":4818:4819   */\n      0x00\n        /* \"#utility.yul\":4809:4815   */\n      dup5\n        /* \"#utility.yul\":4804:4807   */\n      dup5\n        /* \"#utility.yul\":4800:4816   */\n      add\n        /* \"#utility.yul\":4793:4820   */\n      mstore\n        /* \"#utility.yul\":4729:4731   */\n    tag_137:\n        /* \"#utility.yul\":4578:4836   */\n      pop\n      pop\n      pop\n      pop\n      jump\t// out\n        /* \"#utility.yul\":4842:5162   */\n    tag_32:\n        /* \"#utility.yul\":4886:4892   */\n      0x00\n        /* \"#utility.yul\":4923:4924   */\n      0x02\n        /* \"#utility.yul\":4917:4921   */\n      dup3\n        /* \"#utility.yul\":4913:4925   */\n      div\n        /* \"#utility.yul\":4903:4925   */\n      swap1\n      pop\n        /* \"#utility.yul\":4970:4971   */\n      0x01\n        /* \"#utility.yul\":4964:4968   */\n      dup3\n        /* \"#utility.yul\":4960:4972   */\n      and\n        /* \"#utility.yul\":4991:5009   */\n      dup1\n        /* \"#utility.yul\":4981:4983   */\n      tag_139\n      jumpi\n        /* \"#utility.yul\":5047:5051   */\n      0x7f\n        /* \"#utility.yul\":5039:5045   */\n      dup3\n        /* \"#utility.yul\":5035:5052   */\n      and\n        /* \"#utility.yul\":5025:5052   */\n      swap2\n      pop\n        /* \"#utility.yul\":4981:4983   */\n    tag_139:\n        /* \"#utility.yul\":5109:5111   */\n      0x20\n        /* \"#utility.yul\":5101:5107   */\n      dup3\n        /* \"#utility.yul\":5098:5112   */\n      lt\n        /* \"#utility.yul\":5078:5096   */\n      dup2\n        /* \"#utility.yul\":5075:5113   */\n      eq\n        /* \"#utility.yul\":5072:5074   */\n      iszero\n      tag_140\n      jumpi\n        /* \"#utility.yul\":5128:5146   */\n      tag_141\n      tag_142\n      jump\t// in\n    tag_141:\n        /* \"#utility.yul\":5072:5074   */\n    tag_140:\n        /* \"#utility.yul\":4893:5162   */\n      pop\n      swap2\n      swap1\n      pop\n      jump\t// out\n        /* \"#utility.yul\":5168:5449   */\n    tag_121:\n        /* \"#utility.yul\":5251:5278   */\n      tag_144\n        /* \"#utility.yul\":5273:5277   */\n      dup3\n        /* \"#utility.yul\":5251:5278   */\n      tag_104\n      jump\t// in\n    tag_144:\n        /* \"#utility.yul\":5243:5249   */\n      dup2\n        /* \"#utility.yul\":5239:5279   */\n      add\n        /* \"#utility.yul\":5381:5387   */\n      dup2\n        /* \"#utility.yul\":5369:5379   */\n      dup2\n        /* \"#utility.yul\":5366:5388   */\n      lt\n        /* \"#utility.yul\":5345:5363   */\n      0xffffffffffffffff\n        /* \"#utility.yul\":5333:5343   */\n      dup3\n        /* \"#utility.yul\":5330:5364   */\n      gt\n        /* \"#utility.yul\":5327:5389   */\n      or\n        /* \"#utility.yul\":5324:5326   */\n      iszero\n      tag_145\n      jumpi\n        /* \"#utility.yul\":5392:5410   */\n      tag_146\n      tag_126\n      jump\t// in\n    tag_146:\n        /* \"#utility.yul\":5324:5326   */\n    tag_145:\n        /* \"#utility.yul\":5432:5442   */\n      dup1\n        /* \"#utility.yul\":5428:5430   */\n      0x40\n        /* \"#utility.yul\":5421:5443   */\n      mstore\n        /* \"#utility.yul\":5211:5449   */\n      pop\n      pop\n      pop\n      jump\t// out\n        /* \"#utility.yul\":5455:5688   */\n    tag_29:\n        /* \"#utility.yul\":5494:5497   */\n      0x00\n        /* \"#utility.yul\":5517:5541   */\n      tag_148\n        /* \"#utility.yul\":5535:5540   */\n      dup3\n        /* \"#utility.yul\":5517:5541   */\n      tag_108\n      jump\t// in\n    tag_148:\n        /* \"#utility.yul\":5508:5541   */\n      swap2\n      pop\n        /* \"#utility.yul\":5563:5629   */\n      0xffffffffffffffffffffffffffffffffffffffffffffffffffffffffffffffff\n        /* \"#utility.yul\":5556:5561   */\n      dup3\n        /* \"#utility.yul\":5553:5630   */\n      eq\n        /* \"#utility.yul\":5550:5552   */\n      iszero\n      tag_149\n      jumpi\n        /* \"#utility.yul\":5633:5651   */\n      tag_150\n      tag_151\n      jump\t// in\n    tag_150:\n        /* \"#utility.yul\":5550:5552   */\n    tag_149:\n        /* \"#utility.yul\":5680:5681   */\n      0x01\n        /* \"#utility.yul\":5673:5678   */\n      dup3\n        /* \"#utility.yul\":5669:5682   */\n      add\n        /* \"#utility.yul\":5662:5682   */\n      swap1\n      pop\n        /* \"#utility.yul\":5498:5688   */\n      swap2\n      swap1\n      pop\n      jump\t// out\n        /* \"#utility.yul\":5694:5874   */\n    tag_151:\n        /* \"#utility.yul\":5742:5819   */\n      0x4e487b7100000000000000000000000000000000000000000000000000000000\n        /* \"#utility.yul\":5739:5740   */\n      0x00\n        /* \"#utility.yul\":5732:5820   */\n      mstore\n        /* \"#utility.yul\":5839:5843   */\n      0x11\n        /* \"#utility.yul\":5836:5837   */\n      0x04\n        /* \"#utility.yul\":5829:5844   */\n      mstore\n        /* \"#utility.yul\":5863:5867   */\n      0x24\n        /* \"#utility.yul\":5860:5861   */\n      0x00\n        /* \"#utility.yul\":5853:5868   */\n      revert\n        /* \"#utility.yul\":5880:6060   */\n    tag_142:\n        /* \"#utility.yul\":5928:6005   */\n      0x4e487b7100000000000000000000000000000000000000000000000000000000\n        /* \"#utility.yul\":5925:5926   */\n      0x00\n        /* \"#utility.yul\":5918:6006   */\n      mstore\n        /* \"#utility.yul\":6025:6029   */\n      0x22\n        /* \"#utility.yul\":6022:6023   */\n      0x04\n        /* \"#utility.yul\":6015:6030   */\n      mstore\n        /* \"#utility.yul\":6049:6053   */\n      0x24\n        /* \"#utility.yul\":6046:6047   */\n      0x00\n        /* \"#utility.yul\":6039:6054   */\n      revert\n        /* \"#utility.yul\":6066:6246   */\n    tag_126:\n        /* \"#utility.yul\":6114:6191   */\n      0x4e487b7100000000000000000000000000000000000000000000000000000000\n        /* \"#utility.yul\":6111:6112   */\n      0x00\n        /* \"#utility.yul\":6104:6192   */\n      mstore\n        /* \"#utility.yul\":6211:6215   */\n      0x41\n        /* \"#utility.yul\":6208:6209   */\n      0x04\n        /* \"#utility.yul\":6201:6216   */\n      mstore\n        /* \"#utility.yul\":6235:6239   */\n      0x24\n        /* \"#utility.yul\":6232:6233   */\n      0x00\n        /* \"#utility.yul\":6225:6240   */\n      revert\n        /* \"#utility.yul\":6252:6354   */\n    tag_104:\n        /* \"#utility.yul\":6293:6299   */\n      0x00\n        /* \"#utility.yul\":6344:6346   */\n      0x1f\n        /* \"#utility.yul\":6340:6347   */\n      not\n        /* \"#utility.yul\":6335:6337   */\n      0x1f\n        /* \"#utility.yul\":6328:6333   */\n      dup4\n        /* \"#utility.yul\":6324:6338   */\n      add\n        /* \"#utility.yul\":6320:6348   */\n      and\n        /* \"#utility.yul\":6310:6348   */\n      swap1\n      pop\n        /* \"#utility.yul\":6300:6354   */\n      swap2\n      swap1\n      pop\n      jump\t// out\n        /* \"#utility.yul\":6360:6482   */\n    tag_81:\n        /* \"#utility.yul\":6433:6457   */\n      tag_157\n        /* \"#utility.yul\":6451:6456   */\n      dup2\n        /* \"#utility.yul\":6433:6457   */\n      tag_108\n      jump\t// in\n    tag_157:\n        /* \"#utility.yul\":6426:6431   */\n      dup2\n        /* \"#utility.yul\":6423:6458   */\n      eq\n        /* \"#utility.yul\":6413:6415   */\n      tag_158\n      jumpi\n        /* \"#utility.yul\":6472:6473   */\n      0x00\n        /* \"#utility.yul\":6469:6470   */\n      dup1\n        /* \"#utility.yul\":6462:6474   */\n      revert\n        /* \"#utility.yul\":6413:6415   */\n    tag_158:\n        /* \"#utility.yul\":6403:6482   */\n      pop\n      jump\t// out\n\n    auxdata: 0xa2646970667358221220f2d90667dc68cc131f898b79b00e7413937284c4764eb39ce09062776112b69064736f6c63430008040033\n}\n",
				"bytecode": {
					"linkReferences": {},
					"object": "60806040526000805534801561001457600080fd5b506109fc806100246000396000f3fe608060405234801561001057600080fd5b506004361061004c5760003560e01c806306737d9714610051578063292a45851461006f578063e8025d771461008b578063f4b2a46e146100a7575b600080fd5b6100596100db565b604051610066919061071f565b60405180910390f35b61008960048036038101906100849190610633565b6100e1565b005b6100a560048036038101906100a0919061069f565b6101ad565b005b6100c160048036038101906100bc919061069f565b6103c0565b6040516100d295949392919061073a565b60405180910390f35b60005481565b6040518060a001604052806000548152602001838152602001828152602001600015158152602001428152506001600080548152602001908152602001600020600082015181600001556020820151816001019080519060200190610147929190610513565b506040820151816002019080519060200190610164929190610513565b5060608201518160030160006101000a81548160ff021916908315150217905550608082015181600401559050506000808154809291906101a4906108c8565b91905055505050565b6000600160008381526020019081526020016000206040518060a0016040529081600082015481526020016001820180546101e790610865565b80601f016020809104026020016040519081016040528092919081815260200182805461021390610865565b80156102605780601f1061023557610100808354040283529160200191610260565b820191906000526020600020905b81548152906001019060200180831161024357829003601f168201915b5050505050815260200160028201805461027990610865565b80601f01602080910402602001604051908101604052809291908181526020018280546102a590610865565b80156102f25780601f106102c7576101008083540402835291602001916102f2565b820191906000526020600020905b8154815290600101906020018083116102d557829003601f168201915b505050505081526020016003820160009054906101000a900460ff1615151515815260200160048201548152505090508060600151158160600190151590811515815250508060016000848152602001908152602001600020600082015181600001556020820151816001019080519060200190610371929190610513565b50604082015181600201908051906020019061038e929190610513565b5060608201518160030160006101000a81548160ff021916908315150217905550608082015181600401559050505050565b60016020528060005260406000206000915090508060000154908060010180546103e990610865565b80601f016020809104026020016040519081016040528092919081815260200182805461041590610865565b80156104625780601f1061043757610100808354040283529160200191610462565b820191906000526020600020905b81548152906001019060200180831161044557829003601f168201915b50505050509080600201805461047790610865565b80601f01602080910402602001604051908101604052809291908181526020018280546104a390610865565b80156104f05780601f106104c5576101008083540402835291602001916104f0565b820191906000526020600020905b8154815290600101906020018083116104d357829003601f168201915b5050505050908060030160009054906101000a900460ff16908060040154905085565b82805461051f90610865565b90600052602060002090601f0160209004810192826105415760008555610588565b82601f1061055a57805160ff1916838001178555610588565b82800160010185558215610588579182015b8281111561058757825182559160200191906001019061056c565b5b5090506105959190610599565b5090565b5b808211156105b257600081600090555060010161059a565b5090565b60006105c96105c4846107c0565b61079b565b9050828152602081018484840111156105e157600080fd5b6105ec848285610823565b509392505050565b600082601f83011261060557600080fd5b81356106158482602086016105b6565b91505092915050565b60008135905061062d816109af565b92915050565b6000806040838503121561064657600080fd5b600083013567ffffffffffffffff81111561066057600080fd5b61066c858286016105f4565b925050602083013567ffffffffffffffff81111561068957600080fd5b610695858286016105f4565b9150509250929050565b6000602082840312156106b157600080fd5b60006106bf8482850161061e565b91505092915050565b6106d18161080d565b82525050565b60006106e2826107f1565b6106ec81856107fc565b93506106fc818560208601610832565b6107058161099e565b840191505092915050565b61071981610819565b82525050565b60006020820190506107346000830184610710565b92915050565b600060a08201905061074f6000830188610710565b818103602083015261076181876106d7565b9050818103604083015261077581866106d7565b905061078460608301856106c8565b6107916080830184610710565b9695505050505050565b60006107a56107b6565b90506107b18282610897565b919050565b6000604051905090565b600067ffffffffffffffff8211156107db576107da61096f565b5b6107e48261099e565b9050602081019050919050565b600081519050919050565b600082825260208201905092915050565b60008115159050919050565b6000819050919050565b82818337600083830152505050565b60005b83811015610850578082015181840152602081019050610835565b8381111561085f576000848401525b50505050565b6000600282049050600182168061087d57607f821691505b6020821081141561089157610890610940565b5b50919050565b6108a08261099e565b810181811067ffffffffffffffff821117156108bf576108be61096f565b5b80604052505050565b60006108d382610819565b91507fffffffffffffffffffffffffffffffffffffffffffffffffffffffffffffffff82141561090657610905610911565b5b600182019050919050565b7f4e487b7100000000000000000000000000000000000000000000000000000000600052601160045260246000fd5b7f4e487b7100000000000000000000000000000000000000000000000000000000600052602260045260246000fd5b7f4e487b7100000000000000000000000000000000000000000000000000000000600052604160045260246000fd5b6000601f19601f8301169050919050565b6109b881610819565b81146109c357600080fd5b5056fea2646970667358221220f2d90667dc68cc131f898b79b00e7413937284c4764eb39ce09062776112b69064736f6c63430008040033",
					"opcodes": "PUSH1 0x80 PUSH1 0x40 MSTORE PUSH1 0x0 DUP1 SSTORE CALLVALUE DUP1 ISZERO PUSH2 0x14 JUMPI PUSH1 0x0 DUP1 REVERT JUMPDEST POP PUSH2 0x9FC DUP1 PUSH2 0x24 PUSH1 0x0 CODECOPY PUSH1 0x0 RETURN INVALID PUSH1 0x80 PUSH1 0x40 MSTORE CALLVALUE DUP1 ISZERO PUSH2 0x10 JUMPI PUSH1 0x0 DUP1 REVERT JUMPDEST POP PUSH1 0x4 CALLDATASIZE LT PUSH2 0x4C JUMPI PUSH1 0x0 CALLDATALOAD PUSH1 0xE0 SHR DUP1 PUSH4 0x6737D97 EQ PUSH2 0x51 JUMPI DUP1 PUSH4 0x292A4585 EQ PUSH2 0x6F JUMPI DUP1 PUSH4 0xE8025D77 EQ PUSH2 0x8B JUMPI DUP1 PUSH4 0xF4B2A46E EQ PUSH2 0xA7 JUMPI JUMPDEST PUSH1 0x0 DUP1 REVERT JUMPDEST PUSH2 0x59 PUSH2 0xDB JUMP JUMPDEST PUSH1 0x40 MLOAD PUSH2 0x66 SWAP2 SWAP1 PUSH2 0x71F JUMP JUMPDEST PUSH1 0x40 MLOAD DUP1 SWAP2 SUB SWAP1 RETURN JUMPDEST PUSH2 0x89 PUSH1 0x4 DUP1 CALLDATASIZE SUB DUP2 ADD SWAP1 PUSH2 0x84 SWAP2 SWAP1 PUSH2 0x633 JUMP JUMPDEST PUSH2 0xE1 JUMP JUMPDEST STOP JUMPDEST PUSH2 0xA5 PUSH1 0x4 DUP1 CALLDATASIZE SUB DUP2 ADD SWAP1 PUSH2 0xA0 SWAP2 SWAP1 PUSH2 0x69F JUMP JUMPDEST PUSH2 0x1AD JUMP JUMPDEST STOP JUMPDEST PUSH2 0xC1 PUSH1 0x4 DUP1 CALLDATASIZE SUB DUP2 ADD SWAP1 PUSH2 0xBC SWAP2 SWAP1 PUSH2 0x69F JUMP JUMPDEST PUSH2 0x3C0 JUMP JUMPDEST PUSH1 0x40 MLOAD PUSH2 0xD2 SWAP6 SWAP5 SWAP4 SWAP3 SWAP2 SWAP1 PUSH2 0x73A JUMP JUMPDEST PUSH1 0x40 MLOAD DUP1 SWAP2 SUB SWAP1 RETURN JUMPDEST PUSH1 0x0 SLOAD DUP2 JUMP JUMPDEST PUSH1 0x40 MLOAD DUP1 PUSH1 0xA0 ADD PUSH1 0x40 MSTORE DUP1 PUSH1 0x0 SLOAD DUP2 MSTORE PUSH1 0x20 ADD DUP4 DUP2 MSTORE PUSH1 0x20 ADD DUP3 DUP2 MSTORE PUSH1 0x20 ADD PUSH1 0x0 ISZERO ISZERO DUP2 MSTORE PUSH1 0x20 ADD TIMESTAMP DUP2 MSTORE POP PUSH1 0x1 PUSH1 0x0 DUP1 SLOAD DUP2 MSTORE PUSH1 0x20 ADD SWAP1 DUP2 MSTORE PUSH1 0x20 ADD PUSH1 0x0 KECCAK256 PUSH1 0x0 DUP3 ADD MLOAD DUP2 PUSH1 0x0 ADD SSTORE PUSH1 0x20 DUP3 ADD MLOAD DUP2 PUSH1 0x1 ADD SWAP1 DUP1 MLOAD SWAP1 PUSH1 0x20 ADD SWAP1 PUSH2 0x147 SWAP3 SWAP2 SWAP1 PUSH2 0x513 JUMP JUMPDEST POP PUSH1 0x40 DUP3 ADD MLOAD DUP2 PUSH1 0x2 ADD SWAP1 DUP1 MLOAD SWAP1 PUSH1 0x20 ADD SWAP1 PUSH2 0x164 SWAP3 SWAP2 SWAP1 PUSH2 0x513 JUMP JUMPDEST POP PUSH1 0x60 DUP3 ADD MLOAD DUP2 PUSH1 0x3 ADD PUSH1 0x0 PUSH2 0x100 EXP DUP2 SLOAD DUP2 PUSH1 0xFF MUL NOT AND SWAP1 DUP4 ISZERO ISZERO MUL OR SWAP1 SSTORE POP PUSH1 0x80 DUP3 ADD MLOAD DUP2 PUSH1 0x4 ADD SSTORE SWAP1 POP POP PUSH1 0x0 DUP1 DUP2 SLOAD DUP1 SWAP3 SWAP2 SWAP1 PUSH2 0x1A4 SWAP1 PUSH2 0x8C8 JUMP JUMPDEST SWAP2 SWAP1 POP SSTORE POP POP POP JUMP JUMPDEST PUSH1 0x0 PUSH1 0x1 PUSH1 0x0 DUP4 DUP2 MSTORE PUSH1 0x20 ADD SWAP1 DUP2 MSTORE PUSH1 0x20 ADD PUSH1 0x0 KECCAK256 PUSH1 0x40 MLOAD DUP1 PUSH1 0xA0 ADD PUSH1 0x40 MSTORE SWAP1 DUP2 PUSH1 0x0 DUP3 ADD SLOAD DUP2 MSTORE PUSH1 0x20 ADD PUSH1 0x1 DUP3 ADD DUP1 SLOAD PUSH2 0x1E7 SWAP1 PUSH2 0x865 JUMP JUMPDEST DUP1 PUSH1 0x1F ADD PUSH1 0x20 DUP1 SWAP2 DIV MUL PUSH1 0x20 ADD PUSH1 0x40 MLOAD SWAP1 DUP2 ADD PUSH1 0x40 MSTORE DUP1 SWAP3 SWAP2 SWAP1 DUP2 DUP2 MSTORE PUSH1 0x20 ADD DUP3 DUP1 SLOAD PUSH2 0x213 SWAP1 PUSH2 0x865 JUMP JUMPDEST DUP1 ISZERO PUSH2 0x260 JUMPI DUP1 PUSH1 0x1F LT PUSH2 0x235 JUMPI PUSH2 0x100 DUP1 DUP4 SLOAD DIV MUL DUP4 MSTORE SWAP2 PUSH1 0x20 ADD SWAP2 PUSH2 0x260 JUMP JUMPDEST DUP3 ADD SWAP2 SWAP1 PUSH1 0x0 MSTORE PUSH1 0x20 PUSH1 0x0 KECCAK256 SWAP1 JUMPDEST DUP2 SLOAD DUP2 MSTORE SWAP1 PUSH1 0x1 ADD SWAP1 PUSH1 0x20 ADD DUP1 DUP4 GT PUSH2 0x243 JUMPI DUP3 SWAP1 SUB PUSH1 0x1F AND DUP3 ADD SWAP2 JUMPDEST POP POP POP POP POP DUP2 MSTORE PUSH1 0x20 ADD PUSH1 0x2 DUP3 ADD DUP1 SLOAD PUSH2 0x279 SWAP1 PUSH2 0x865 JUMP JUMPDEST DUP1 PUSH1 0x1F ADD PUSH1 0x20 DUP1 SWAP2 DIV MUL PUSH1 0x20 ADD PUSH1 0x40 MLOAD SWAP1 DUP2 ADD PUSH1 0x40 MSTORE DUP1 SWAP3 SWAP2 SWAP1 DUP2 DUP2 MSTORE PUSH1 0x20 ADD DUP3 DUP1 SLOAD PUSH2 0x2A5 SWAP1 PUSH2 0x865 JUMP JUMPDEST DUP1 ISZERO PUSH2 0x2F2 JUMPI DUP1 PUSH1 0x1F LT PUSH2 0x2C7 JUMPI PUSH2 0x100 DUP1 DUP4 SLOAD DIV MUL DUP4 MSTORE SWAP2 PUSH1 0x20 ADD SWAP2 PUSH2 0x2F2 JUMP JUMPDEST DUP3 ADD SWAP2 SWAP1 PUSH1 0x0 MSTORE PUSH1 0x20 PUSH1 0x0 KECCAK256 SWAP1 JUMPDEST DUP2 SLOAD DUP2 MSTORE SWAP1 PUSH1 0x1 ADD SWAP1 PUSH1 0x20 ADD DUP1 DUP4 GT PUSH2 0x2D5 JUMPI DUP3 SWAP1 SUB PUSH1 0x1F AND DUP3 ADD SWAP2 JUMPDEST POP POP POP POP POP DUP2 MSTORE PUSH1 0x20 ADD PUSH1 0x3 DUP3 ADD PUSH1 0x0 SWAP1 SLOAD SWAP1 PUSH2 0x100 EXP SWAP1 DIV PUSH1 0xFF AND ISZERO ISZERO ISZERO ISZERO DUP2 MSTORE PUSH1 0x20 ADD PUSH1 0x4 DUP3 ADD SLOAD DUP2 MSTORE POP POP SWAP1 POP DUP1 PUSH1 0x60 ADD MLOAD ISZERO DUP2 PUSH1 0x60 ADD SWAP1 ISZERO ISZERO SWAP1 DUP2 ISZERO ISZERO DUP2 MSTORE POP POP DUP1 PUSH1 0x1 PUSH1 0x0 DUP5 DUP2 MSTORE PUSH1 0x20 ADD SWAP1 DUP2 MSTORE PUSH1 0x20 ADD PUSH1 0x0 KECCAK256 PUSH1 0x0 DUP3 ADD MLOAD DUP2 PUSH1 0x0 ADD SSTORE PUSH1 0x20 DUP3 ADD MLOAD DUP2 PUSH1 0x1 ADD SWAP1 DUP1 MLOAD SWAP1 PUSH1 0x20 ADD SWAP1 PUSH2 0x371 SWAP3 SWAP2 SWAP1 PUSH2 0x513 JUMP JUMPDEST POP PUSH1 0x40 DUP3 ADD MLOAD DUP2 PUSH1 0x2 ADD SWAP1 DUP1 MLOAD SWAP1 PUSH1 0x20 ADD SWAP1 PUSH2 0x38E SWAP3 SWAP2 SWAP1 PUSH2 0x513 JUMP JUMPDEST POP PUSH1 0x60 DUP3 ADD MLOAD DUP2 PUSH1 0x3 ADD PUSH1 0x0 PUSH2 0x100 EXP DUP2 SLOAD DUP2 PUSH1 0xFF MUL NOT AND SWAP1 DUP4 ISZERO ISZERO MUL OR SWAP1 SSTORE POP PUSH1 0x80 DUP3 ADD MLOAD DUP2 PUSH1 0x4 ADD SSTORE SWAP1 POP POP POP POP JUMP JUMPDEST PUSH1 0x1 PUSH1 0x20 MSTORE DUP1 PUSH1 0x0 MSTORE PUSH1 0x40 PUSH1 0x0 KECCAK256 PUSH1 0x0 SWAP2 POP SWAP1 POP DUP1 PUSH1 0x0 ADD SLOAD SWAP1 DUP1 PUSH1 0x1 ADD DUP1 SLOAD PUSH2 0x3E9 SWAP1 PUSH2 0x865 JUMP JUMPDEST DUP1 PUSH1 0x1F ADD PUSH1 0x20 DUP1 SWAP2 DIV MUL PUSH1 0x20 ADD PUSH1 0x40 MLOAD SWAP1 DUP2 ADD PUSH1 0x40 MSTORE DUP1 SWAP3 SWAP2 SWAP1 DUP2 DUP2 MSTORE PUSH1 0x20 ADD DUP3 DUP1 SLOAD PUSH2 0x415 SWAP1 PUSH2 0x865 JUMP JUMPDEST DUP1 ISZERO PUSH2 0x462 JUMPI DUP1 PUSH1 0x1F LT PUSH2 0x437 JUMPI PUSH2 0x100 DUP1 DUP4 SLOAD DIV MUL DUP4 MSTORE SWAP2 PUSH1 0x20 ADD SWAP2 PUSH2 0x462 JUMP JUMPDEST DUP3 ADD SWAP2 SWAP1 PUSH1 0x0 MSTORE PUSH1 0x20 PUSH1 0x0 KECCAK256 SWAP1 JUMPDEST DUP2 SLOAD DUP2 MSTORE SWAP1 PUSH1 0x1 ADD SWAP1 PUSH1 0x20 ADD DUP1 DUP4 GT PUSH2 0x445 JUMPI DUP3 SWAP1 SUB PUSH1 0x1F AND DUP3 ADD SWAP2 JUMPDEST POP POP POP POP POP SWAP1 DUP1 PUSH1 0x2 ADD DUP1 SLOAD PUSH2 0x477 SWAP1 PUSH2 0x865 JUMP JUMPDEST DUP1 PUSH1 0x1F ADD PUSH1 0x20 DUP1 SWAP2 DIV MUL PUSH1 0x20 ADD PUSH1 0x40 MLOAD SWAP1 DUP2 ADD PUSH1 0x40 MSTORE DUP1 SWAP3 SWAP2 SWAP1 DUP2 DUP2 MSTORE PUSH1 0x20 ADD DUP3 DUP1 SLOAD PUSH2 0x4A3 SWAP1 PUSH2 0x865 JUMP JUMPDEST DUP1 ISZERO PUSH2 0x4F0 JUMPI DUP1 PUSH1 0x1F LT PUSH2 0x4C5 JUMPI PUSH2 0x100 DUP1 DUP4 SLOAD DIV MUL DUP4 MSTORE SWAP2 PUSH1 0x20 ADD SWAP2 PUSH2 0x4F0 JUMP JUMPDEST DUP3 ADD SWAP2 SWAP1 PUSH1 0x0 MSTORE PUSH1 0x20 PUSH1 0x0 KECCAK256 SWAP1 JUMPDEST DUP2 SLOAD DUP2 MSTORE SWAP1 PUSH1 0x1 ADD SWAP1 PUSH1 0x20 ADD DUP1 DUP4 GT PUSH2 0x4D3 JUMPI DUP3 SWAP1 SUB PUSH1 0x1F AND DUP3 ADD SWAP2 JUMPDEST POP POP POP POP POP SWAP1 DUP1 PUSH1 0x3 ADD PUSH1 0x0 SWAP1 SLOAD SWAP1 PUSH2 0x100 EXP SWAP1 DIV PUSH1 0xFF AND SWAP1 DUP1 PUSH1 0x4 ADD SLOAD SWAP1 POP DUP6 JUMP JUMPDEST DUP3 DUP1 SLOAD PUSH2 0x51F SWAP1 PUSH2 0x865 JUMP JUMPDEST SWAP1 PUSH1 0x0 MSTORE PUSH1 0x20 PUSH1 0x0 KECCAK256 SWAP1 PUSH1 0x1F ADD PUSH1 0x20 SWAP1 DIV DUP2 ADD SWAP3 DUP3 PUSH2 0x541 JUMPI PUSH1 0x0 DUP6 SSTORE PUSH2 0x588 JUMP JUMPDEST DUP3 PUSH1 0x1F LT PUSH2 0x55A JUMPI DUP1 MLOAD PUSH1 0xFF NOT AND DUP4 DUP1 ADD OR DUP6 SSTORE PUSH2 0x588 JUMP JUMPDEST DUP3 DUP1 ADD PUSH1 0x1 ADD DUP6 SSTORE DUP3 ISZERO PUSH2 0x588 JUMPI SWAP2 DUP3 ADD JUMPDEST DUP3 DUP2 GT ISZERO PUSH2 0x587 JUMPI DUP3 MLOAD DUP3 SSTORE SWAP2 PUSH1 0x20 ADD SWAP2 SWAP1 PUSH1 0x1 ADD SWAP1 PUSH2 0x56C JUMP JUMPDEST JUMPDEST POP SWAP1 POP PUSH2 0x595 SWAP2 SWAP1 PUSH2 0x599 JUMP JUMPDEST POP SWAP1 JUMP JUMPDEST JUMPDEST DUP1 DUP3 GT ISZERO PUSH2 0x5B2 JUMPI PUSH1 0x0 DUP2 PUSH1 0x0 SWAP1 SSTORE POP PUSH1 0x1 ADD PUSH2 0x59A JUMP JUMPDEST POP SWAP1 JUMP JUMPDEST PUSH1 0x0 PUSH2 0x5C9 PUSH2 0x5C4 DUP5 PUSH2 0x7C0 JUMP JUMPDEST PUSH2 0x79B JUMP JUMPDEST SWAP1 POP DUP3 DUP2 MSTORE PUSH1 0x20 DUP2 ADD DUP5 DUP5 DUP5 ADD GT ISZERO PUSH2 0x5E1 JUMPI PUSH1 0x0 DUP1 REVERT JUMPDEST PUSH2 0x5EC DUP5 DUP3 DUP6 PUSH2 0x823 JUMP JUMPDEST POP SWAP4 SWAP3 POP POP POP JUMP JUMPDEST PUSH1 0x0 DUP3 PUSH1 0x1F DUP4 ADD SLT PUSH2 0x605 JUMPI PUSH1 0x0 DUP1 REVERT JUMPDEST DUP2 CALLDATALOAD PUSH2 0x615 DUP5 DUP3 PUSH1 0x20 DUP7 ADD PUSH2 0x5B6 JUMP JUMPDEST SWAP2 POP POP SWAP3 SWAP2 POP POP JUMP JUMPDEST PUSH1 0x0 DUP2 CALLDATALOAD SWAP1 POP PUSH2 0x62D DUP2 PUSH2 0x9AF JUMP JUMPDEST SWAP3 SWAP2 POP POP JUMP JUMPDEST PUSH1 0x0 DUP1 PUSH1 0x40 DUP4 DUP6 SUB SLT ISZERO PUSH2 0x646 JUMPI PUSH1 0x0 DUP1 REVERT JUMPDEST PUSH1 0x0 DUP4 ADD CALLDATALOAD PUSH8 0xFFFFFFFFFFFFFFFF DUP2 GT ISZERO PUSH2 0x660 JUMPI PUSH1 0x0 DUP1 REVERT JUMPDEST PUSH2 0x66C DUP6 DUP3 DUP7 ADD PUSH2 0x5F4 JUMP JUMPDEST SWAP3 POP POP PUSH1 0x20 DUP4 ADD CALLDATALOAD PUSH8 0xFFFFFFFFFFFFFFFF DUP2 GT ISZERO PUSH2 0x689 JUMPI PUSH1 0x0 DUP1 REVERT JUMPDEST PUSH2 0x695 DUP6 DUP3 DUP7 ADD PUSH2 0x5F4 JUMP JUMPDEST SWAP2 POP POP SWAP3 POP SWAP3 SWAP1 POP JUMP JUMPDEST PUSH1 0x0 PUSH1 0x20 DUP3 DUP5 SUB SLT ISZERO PUSH2 0x6B1 JUMPI PUSH1 0x0 DUP1 REVERT JUMPDEST PUSH1 0x0 PUSH2 0x6BF DUP5 DUP3 DUP6 ADD PUSH2 0x61E JUMP JUMPDEST SWAP2 POP POP SWAP3 SWAP2 POP POP JUMP JUMPDEST PUSH2 0x6D1 DUP2 PUSH2 0x80D JUMP JUMPDEST DUP3 MSTORE POP POP JUMP JUMPDEST PUSH1 0x0 PUSH2 0x6E2 DUP3 PUSH2 0x7F1 JUMP JUMPDEST PUSH2 0x6EC DUP2 DUP6 PUSH2 0x7FC JUMP JUMPDEST SWAP4 POP PUSH2 0x6FC DUP2 DUP6 PUSH1 0x20 DUP7 ADD PUSH2 0x832 JUMP JUMPDEST PUSH2 0x705 DUP2 PUSH2 0x99E JUMP JUMPDEST DUP5 ADD SWAP2 POP POP SWAP3 SWAP2 POP POP JUMP JUMPDEST PUSH2 0x719 DUP2 PUSH2 0x819 JUMP JUMPDEST DUP3 MSTORE POP POP JUMP JUMPDEST PUSH1 0x0 PUSH1 0x20 DUP3 ADD SWAP1 POP PUSH2 0x734 PUSH1 0x0 DUP4 ADD DUP5 PUSH2 0x710 JUMP JUMPDEST SWAP3 SWAP2 POP POP JUMP JUMPDEST PUSH1 0x0 PUSH1 0xA0 DUP3 ADD SWAP1 POP PUSH2 0x74F PUSH1 0x0 DUP4 ADD DUP9 PUSH2 0x710 JUMP JUMPDEST DUP2 DUP2 SUB PUSH1 0x20 DUP4 ADD MSTORE PUSH2 0x761 DUP2 DUP8 PUSH2 0x6D7 JUMP JUMPDEST SWAP1 POP DUP2 DUP2 SUB PUSH1 0x40 DUP4 ADD MSTORE PUSH2 0x775 DUP2 DUP7 PUSH2 0x6D7 JUMP JUMPDEST SWAP1 POP PUSH2 0x784 PUSH1 0x60 DUP4 ADD DUP6 PUSH2 0x6C8 JUMP JUMPDEST PUSH2 0x791 PUSH1 0x80 DUP4 ADD DUP5 PUSH2 0x710 JUMP JUMPDEST SWAP7 SWAP6 POP POP POP POP POP POP JUMP JUMPDEST PUSH1 0x0 PUSH2 0x7A5 PUSH2 0x7B6 JUMP JUMPDEST SWAP1 POP PUSH2 0x7B1 DUP3 DUP3 PUSH2 0x897 JUMP JUMPDEST SWAP2 SWAP1 POP JUMP JUMPDEST PUSH1 0x0 PUSH1 0x40 MLOAD SWAP1 POP SWAP1 JUMP JUMPDEST PUSH1 0x0 PUSH8 0xFFFFFFFFFFFFFFFF DUP3 GT ISZERO PUSH2 0x7DB JUMPI PUSH2 0x7DA PUSH2 0x96F JUMP JUMPDEST JUMPDEST PUSH2 0x7E4 DUP3 PUSH2 0x99E JUMP JUMPDEST SWAP1 POP PUSH1 0x20 DUP2 ADD SWAP1 POP SWAP2 SWAP1 POP JUMP JUMPDEST PUSH1 0x0 DUP2 MLOAD SWAP1 POP SWAP2 SWAP1 POP JUMP JUMPDEST PUSH1 0x0 DUP3 DUP3 MSTORE PUSH1 0x20 DUP3 ADD SWAP1 POP SWAP3 SWAP2 POP POP JUMP JUMPDEST PUSH1 0x0 DUP2 ISZERO ISZERO SWAP1 POP SWAP2 SWAP1 POP JUMP JUMPDEST PUSH1 0x0 DUP2 SWAP1 POP SWAP2 SWAP1 POP JUMP JUMPDEST DUP3 DUP2 DUP4 CALLDATACOPY PUSH1 0x0 DUP4 DUP4 ADD MSTORE POP POP POP JUMP JUMPDEST PUSH1 0x0 JUMPDEST DUP4 DUP2 LT ISZERO PUSH2 0x850 JUMPI DUP1 DUP3 ADD MLOAD DUP2 DUP5 ADD MSTORE PUSH1 0x20 DUP2 ADD SWAP1 POP PUSH2 0x835 JUMP JUMPDEST DUP4 DUP2 GT ISZERO PUSH2 0x85F JUMPI PUSH1 0x0 DUP5 DUP5 ADD MSTORE JUMPDEST POP POP POP POP JUMP JUMPDEST PUSH1 0x0 PUSH1 0x2 DUP3 DIV SWAP1 POP PUSH1 0x1 DUP3 AND DUP1 PUSH2 0x87D JUMPI PUSH1 0x7F DUP3 AND SWAP2 POP JUMPDEST PUSH1 0x20 DUP3 LT DUP2 EQ ISZERO PUSH2 0x891 JUMPI PUSH2 0x890 PUSH2 0x940 JUMP JUMPDEST JUMPDEST POP SWAP2 SWAP1 POP JUMP JUMPDEST PUSH2 0x8A0 DUP3 PUSH2 0x99E JUMP JUMPDEST DUP2 ADD DUP2 DUP2 LT PUSH8 0xFFFFFFFFFFFFFFFF DUP3 GT OR ISZERO PUSH2 0x8BF JUMPI PUSH2 0x8BE PUSH2 0x96F JUMP JUMPDEST JUMPDEST DUP1 PUSH1 0x40 MSTORE POP POP POP JUMP JUMPDEST PUSH1 0x0 PUSH2 0x8D3 DUP3 PUSH2 0x819 JUMP JUMPDEST SWAP2 POP PUSH32 0xFFFFFFFFFFFFFFFFFFFFFFFFFFFFFFFFFFFFFFFFFFFFFFFFFFFFFFFFFFFFFFFF DUP3 EQ ISZERO PUSH2 0x906 JUMPI PUSH2 0x905 PUSH2 0x911 JUMP JUMPDEST JUMPDEST PUSH1 0x1 DUP3 ADD SWAP1 POP SWAP2 SWAP1 POP JUMP JUMPDEST PUSH32 0x4E487B7100000000000000000000000000000000000000000000000000000000 PUSH1 0x0 MSTORE PUSH1 0x11 PUSH1 0x4 MSTORE PUSH1 0x24 PUSH1 0x0 REVERT JUMPDEST PUSH32 0x4E487B7100000000000000000000000000000000000000000000000000000000 PUSH1 0x0 MSTORE PUSH1 0x22 PUSH1 0x4 MSTORE PUSH1 0x24 PUSH1 0x0 REVERT JUMPDEST PUSH32 0x4E487B7100000000000000000000000000000000000000000000000000000000 PUSH1 0x0 MSTORE PUSH1 0x41 PUSH1 0x4 MSTORE PUSH1 0x24 PUSH1 0x0 REVERT JUMPDEST PUSH1 0x0 PUSH1 0x1F NOT PUSH1 0x1F DUP4 ADD AND SWAP1 POP SWAP2 SWAP1 POP JUMP JUMPDEST PUSH2 0x9B8 DUP2 PUSH2 0x819 JUMP JUMPDEST DUP2 EQ PUSH2 0x9C3 JUMPI PUSH1 0x0 DUP1 REVERT JUMPDEST POP JUMP INVALID LOG2 PUSH5 0x6970667358 0x22 SLT KECCAK256 CALLCODE 0xD9 MOD PUSH8 0xDC68CC131F898B79 0xB0 0xE PUSH21 0x13937284C4764EB39CE09062776112B69064736F6C PUSH4 0x43000804 STOP CALLER "
				},
				"gasEstimates": {
					"creation": {
						"codeDepositCost": "511200",
						"executionCost": "5549",
						"totalCost": "516749"
					},
					"external": {
						"TaskCounter()": "1107",
						"Tasks(uint256)": "infinite",
						"changeStatus(uint256)": "infinite",
						"createTask(string,string)": "infinite"
					}
				},
				"methodIdentifiers": {
					"TaskCounter()": "06737d97",
					"Tasks(uint256)": "f4b2a46e",
					"changeStatus(uint256)": "e8025d77",
					"createTask(string,string)": "292a4585"
				}
			},
			"storageLayout": {
				"storage": [
					{
						"astId": 4,
						"contract": "contracts/TaskManager/TaskContract.sol:TaskContract",
						"label": "TaskCounter",
						"offset": 0,
						"slot": "0",
						"type": "t_uint256"
					},
					{
						"astId": 20,
						"contract": "contracts/TaskManager/TaskContract.sol:TaskContract",
						"label": "Tasks",
						"offset": 0,
						"slot": "1",
						"type": "t_mapping(t_uint256,t_struct(Task)15_storage)"
					}
				],
				"types": {
					"t_bool": {
						"encoding": "inplace",
						"label": "bool",
						"numberOfBytes": "1"
					},
					"t_mapping(t_uint256,t_struct(Task)15_storage)": {
						"encoding": "mapping",
						"key": "t_uint256",
						"label": "mapping(uint256 => struct TaskContract.Task)",
						"numberOfBytes": "32",
						"value": "t_struct(Task)15_storage"
					},
					"t_string_storage": {
						"encoding": "bytes",
						"label": "string",
						"numberOfBytes": "32"
					},
					"t_struct(Task)15_storage": {
						"encoding": "inplace",
						"label": "struct TaskContract.Task",
						"members": [
							{
								"astId": 6,
								"contract": "contracts/TaskManager/TaskContract.sol:TaskContract",
								"label": "Id",
								"offset": 0,
								"slot": "0",
								"type": "t_uint256"
							},
							{
								"astId": 8,
								"contract": "contracts/TaskManager/TaskContract.sol:TaskContract",
								"label": "Title",
								"offset": 0,
								"slot": "1",
								"type": "t_string_storage"
							},
							{
								"astId": 10,
								"contract": "contracts/TaskManager/TaskContract.sol:TaskContract",
								"label": "Description",
								"offset": 0,
								"slot": "2",
								"type": "t_string_storage"
							},
							{
								"astId": 12,
								"contract": "contracts/TaskManager/TaskContract.sol:TaskContract",
								"label": "Done",
								"offset": 0,
								"slot": "3",
								"type": "t_bool"
							},
							{
								"astId": 14,
								"contract": "contracts/TaskManager/TaskContract.sol:TaskContract",
								"label": "createdAt",
								"offset": 0,
								"slot": "4",
								"type": "t_uint256"
							}
						],
						"numberOfBytes": "160"
					},
					"t_uint256": {
						"encoding": "inplace",
						"label": "uint256",
						"numberOfBytes": "32"
					}
				}
			},
			"userdoc": {
				"kind": "user",
				"methods": {},
				"version": 1
			}
		}
	}
}